{
  "contractName": "ERC721",
  "abi": [
    {
      "anonymous": false,
      "inputs": [
        {
          "indexed": true,
          "internalType": "address",
          "name": "_owner",
          "type": "address"
        },
        {
          "indexed": true,
          "internalType": "address",
          "name": "_approved",
          "type": "address"
        },
        {
          "indexed": true,
          "internalType": "uint256",
          "name": "_tokenId",
          "type": "uint256"
        }
      ],
      "name": "Approval",
      "type": "event"
    },
    {
      "anonymous": false,
      "inputs": [
        {
          "indexed": true,
          "internalType": "address",
          "name": "_from",
          "type": "address"
        },
        {
          "indexed": true,
          "internalType": "address",
          "name": "_to",
          "type": "address"
        },
        {
          "indexed": true,
          "internalType": "uint256",
          "name": "_tokenId",
          "type": "uint256"
        }
      ],
      "name": "Transfer",
      "type": "event"
    },
    {
      "inputs": [
        {
          "internalType": "address",
          "name": "_owner",
          "type": "address"
        }
      ],
      "name": "balanceOf",
      "outputs": [
        {
          "internalType": "uint256",
          "name": "",
          "type": "uint256"
        }
      ],
      "stateMutability": "view",
      "type": "function"
    },
    {
      "inputs": [
        {
          "internalType": "uint256",
          "name": "_tokenId",
          "type": "uint256"
        }
      ],
      "name": "ownerOf",
      "outputs": [
        {
          "internalType": "address",
          "name": "",
          "type": "address"
        }
      ],
      "stateMutability": "view",
      "type": "function"
    },
    {
      "inputs": [
        {
          "internalType": "address",
          "name": "_from",
          "type": "address"
        },
        {
          "internalType": "address",
          "name": "_to",
          "type": "address"
        },
        {
          "internalType": "uint256",
          "name": "_tokenId",
          "type": "uint256"
        }
      ],
      "name": "transferFrom",
      "outputs": [],
      "stateMutability": "payable",
      "type": "function"
    },
    {
      "inputs": [
        {
          "internalType": "address",
          "name": "_approved",
          "type": "address"
        },
        {
          "internalType": "uint256",
          "name": "_tokenId",
          "type": "uint256"
        }
      ],
      "name": "approve",
      "outputs": [],
      "stateMutability": "payable",
      "type": "function"
    }
  ],
  "bytecode": "0x608060405234801561001057600080fd5b506106ff806100206000396000f3fe60806040526004361061003f5760003560e01c8063095ea7b31461004457806323b872dd146100595780636352211e1461006c57806370a08231146100a9575b600080fd5b610057610052366004610567565b6100d7565b005b610057610067366004610593565b6102a0565b34801561007857600080fd5b5061008c6100873660046105d4565b6102b0565b6040516001600160a01b0390911681526020015b60405180910390f35b3480156100b557600080fd5b506100c96100c43660046105ed565b61031b565b6040519081526020016100a0565b6040516331a9108f60e11b8152600481018290523390829082903090636352211e90602401602060405180830381865afa158015610119573d6000803e3d6000fd5b505050506040513d601f19601f8201168201806040525081019061013d9190610611565b6001600160a01b03161461016c5760405162461bcd60e51b81526004016101639061062e565b60405180910390fd5b6040516331a9108f60e11b8152600481018490523090636352211e90602401602060405180830381865afa1580156101a8573d6000803e3d6000fd5b505050506040513d601f19601f820116820180604052508101906101cc9190610611565b6001600160a01b0316846001600160a01b0316036102455760405162461bcd60e51b815260206004820152603060248201527f4552433732313a20417070726f76616c20746f2063757272656e74206f776e6560448201526f1c881a5cc81b9bddc8185b1b1bddd95960821b6064820152608401610163565b60008381526002602052604080822080546001600160a01b0319166001600160a01b0388169081179091559051859233917f8c5be1e5ebec7d5bd14f71427d1e84f3dd0314c0f7b2291e5b200ac8c7c3b9259190a450505050565b6102ab83838361039b565b505050565b6000818152602081905260408120546001600160a01b0316806103155760405162461bcd60e51b815260206004820152601860248201527f4552433732313a20696e76616c6964205f746f6b656e496400000000000000006044820152606401610163565b92915050565b60006001600160a01b03821661037f5760405162461bcd60e51b815260206004820152602360248201527f4552433732313a207a65726f2061646472657373206973206e6f7420616c6c6f6044820152621dd95960ea1b6064820152608401610163565b506001600160a01b031660009081526001602052604090205490565b816001600160a01b0381166104095760405162461bcd60e51b815260206004820152602e60248201527f4552433732313a206d696e74696e6720746f207a65726f20616464726573732060448201526d1a5cc81b9bdd08185b1b1bddd95960921b6064820152608401610163565b6040516331a9108f60e11b815260048101839052849083906001600160a01b038316903090636352211e90602401602060405180830381865afa158015610454573d6000803e3d6000fd5b505050506040513d601f19601f820116820180604052508101906104789190610611565b6001600160a01b03161461049e5760405162461bcd60e51b81526004016101639061062e565b6001600160a01b03861660009081526001602052604081208054916104c283610699565b90915550506001600160a01b03851660009081526001602052604081208054916104eb836106b0565b909155505060008481526020819052604080822080546001600160a01b0319166001600160a01b0389811691821790925591518793918a16917fddf252ad1be2c89b69c2b068fc378daa952ba7f163c4a11628f55a4df523b3ef91a4505050505050565b6001600160a01b038116811461056457600080fd5b50565b6000806040838503121561057a57600080fd5b82356105858161054f565b946020939093013593505050565b6000806000606084860312156105a857600080fd5b83356105b38161054f565b925060208401356105c38161054f565b929592945050506040919091013590565b6000602082840312156105e657600080fd5b5035919050565b6000602082840312156105ff57600080fd5b813561060a8161054f565b9392505050565b60006020828403121561062357600080fd5b815161060a8161054f565b60208082526035908201527f4552433732313a207472616e736665722068617320746f2062652065786563756040820152743a32b21037b7363c90313c903a34329037b73bb2b960591b606082015260800190565b634e487b7160e01b600052601160045260246000fd5b6000816106a8576106a8610683565b506000190190565b6000600182016106c2576106c2610683565b506001019056fea26469706673582212207b2ae0932836c437daff3c49a6cfad854bf0e705638bf99d7574abecdc2ac0f464736f6c634300080d0033",
  "immutableReferences": {},
  "source": "// SPDX-License-Identifier: MIT\npragma solidity >=0.8.0 <0.9.0;\n\ncontract ERC721 {\n  mapping(uint256 => address) private _tokenOwner;\n  mapping(address => uint256) private _ownerBalance;\n  //mapping from tokenId to approved addresses\n  mapping(uint256 => address) private _tokenApprovals;\n\n  /// @dev This emits when ownership of any NFT changes by any mechanism.\n  ///  This event emits when NFTs are created (`from` == 0) and destroyed\n  ///  (`to` == 0). Exception: during contract creation, any number of NFTs\n  ///  may be created and assigned without emitting Transfer. At the time of\n  ///  any transfer, the approved address for that NFT (if any) is reset to none.\n  event Transfer(\n    address indexed _from,\n    address indexed _to,\n    uint256 indexed _tokenId\n  );\n\n  /// @dev This emits when the approved address for an NFT is changed or\n  ///  reaffirmed. The zero address indicates there is no approved address.\n  ///  When a Transfer event emits, this also indicates that the approved\n  ///  address for that NFT (if any) is reset to none.\n  event Approval(\n    address indexed _owner,\n    address indexed _approved,\n    uint256 indexed _tokenId\n  );\n\n  modifier notZeroAccount(address _account) {\n    require(\n      _account != address(0),\n      \"ERC721: minting to zero address is not allowed\"\n    );\n    _;\n  }\n\n  modifier notMintedToken(uint256 _tokenId) {\n    require(\n      _tokenOwner[_tokenId] == address(0),\n      \"ERC721: token has already been minted\"\n    );\n    _;\n  }\n\n  modifier isTokenOwner(address _owner, uint256 _tokenId) {\n    require(\n      this.ownerOf(_tokenId) == _owner,\n      \"ERC721: transfer has to be executed only by the onwer\"\n    );\n    _;\n  }\n\n  /// @notice Count all NFTs assigned to an owner\n  /// @dev NFTs assigned to the zero address are considered invalid, and this\n  ///  function throws for queries about the zero address.\n  /// @param _owner An address for whom to query the balance\n  /// @return The number of NFTs owned by `_owner`, possibly zero\n  function balanceOf(address _owner) public view returns (uint256) {\n    require(_owner != address(0), \"ERC721: zero address is not allowed\");\n    return _ownerBalance[_owner];\n  }\n\n  /// @notice Find the owner of an NFT\n  /// @dev NFTs assigned to zero address are considered invalid, and queries\n  ///  about them do throw.\n  /// @param _tokenId The identifier for an NFT\n  /// @return The address of the owner of the NFT\n  function ownerOf(uint256 _tokenId) external view returns (address) {\n    address _owner = _tokenOwner[_tokenId];\n    require(_owner != address(0), \"ERC721: invalid _tokenId\");\n    return _owner;\n  }\n\n  /// @notice mint a NFT with id {_tokenId} to the owner {_to}\n  function _mint(address _to, uint256 _tokenId)\n    internal\n    virtual\n    notZeroAccount(_to)\n    notMintedToken(_tokenId)\n  {\n    _tokenOwner[_tokenId] = _to;\n    _ownerBalance[_to] += 1;\n    emit Transfer(address(0), _to, _tokenId);\n  }\n\n  /// @notice Transfer ownership of an NFT -- THE CALLER IS RESPONSIBLE\n  ///  TO CONFIRM THAT `_to` IS CAPABLE OF RECEIVING NFTS OR ELSE\n  ///  THEY MAY BE PERMANENTLY LOST\n  /// @dev Throws unless `msg.sender` is the current owner, an authorized\n  ///  operator, or the approved address for this NFT. Throws if `_from` is\n  ///  not the current owner. Throws if `_to` is the zero address. Throws if\n  ///  `_tokenId` is not a valid NFT.\n  /// @param _from The current owner of the NFT\n  /// @param _to The new owner\n  /// @param _tokenId The NFT to transfer\n  function _transferFrom(\n    address _from,\n    address _to,\n    uint256 _tokenId\n  ) internal notZeroAccount(_to) isTokenOwner(_from, _tokenId) {\n    //update the balance of the address from and to\n    _ownerBalance[_from]--;\n    _ownerBalance[_to]++;\n    //add the safe funcionality ???\n    //add tokenId to the address receiving the token\n    _tokenOwner[_tokenId] = _to;\n\n    emit Transfer(_from, _to, _tokenId);\n  }\n\n  /// @notice Transfer ownership of an NFT -- THE CALLER IS RESPONSIBLE\n  ///  TO CONFIRM THAT `_to` IS CAPABLE OF RECEIVING NFTS OR ELSE\n  ///  THEY MAY BE PERMANENTLY LOST\n  /// @dev Throws unless `msg.sender` is the current owner, an authorized\n  ///  operator, or the approved address for this NFT. Throws if `_from` is\n  ///  not the current owner. Throws if `_to` is the zero address. Throws if\n  ///  `_tokenId` is not a valid NFT.\n  /// @param _from The current owner of the NFT\n  /// @param _to The new owner\n  /// @param _tokenId The NFT to transfer\n  function transferFrom(\n    address _from,\n    address _to,\n    uint256 _tokenId\n  ) public payable {\n    _transferFrom(_from, _to, _tokenId);\n  }\n\n  /// @notice Change or reaffirm the approved address for an NFT\n  /// @dev The zero address indicates there is no approved address.\n  ///  Throws unless `msg.sender` is the current NFT owner, or an authorized\n  ///  operator of the current owner.\n  /// @param _approved The new approved NFT controller\n  /// @param _tokenId The NFT to approve\n  function approve(address _approved, uint256 _tokenId)\n    external\n    payable\n    isTokenOwner(msg.sender, _tokenId)\n  {\n    require(\n      _approved != this.ownerOf(_tokenId),\n      \"ERC721: Approval to current owner is now allowed\"\n    );\n    _tokenApprovals[_tokenId] = _approved;\n    emit Approval(msg.sender, _approved, _tokenId);\n  }\n}\n",
  "sourcePath": "/home/fabianorodrigo/Projetos/solidity/udemy/nft-marketplace-truffle/src/contracts/ERC721.sol",
  "compiler": {
    "name": "solc",
    "version": "0.8.13+commit.abaa5c0e.Emscripten.clang"
  },
  "schemaVersion": "3.4.7",
  "updatedAt": "2022-05-11T14:40:25.631Z",
  "devdoc": {
    "events": {
      "Approval(address,address,uint256)": {
        "details": "This emits when the approved address for an NFT is changed or  reaffirmed. The zero address indicates there is no approved address.  When a Transfer event emits, this also indicates that the approved  address for that NFT (if any) is reset to none."
      },
      "Transfer(address,address,uint256)": {
        "details": "This emits when ownership of any NFT changes by any mechanism.  This event emits when NFTs are created (`from` == 0) and destroyed  (`to` == 0). Exception: during contract creation, any number of NFTs  may be created and assigned without emitting Transfer. At the time of  any transfer, the approved address for that NFT (if any) is reset to none."
      }
    },
    "kind": "dev",
    "methods": {
      "approve(address,uint256)": {
        "details": "The zero address indicates there is no approved address.  Throws unless `msg.sender` is the current NFT owner, or an authorized  operator of the current owner.",
        "params": {
          "_approved": "The new approved NFT controller",
          "_tokenId": "The NFT to approve"
        }
      },
      "balanceOf(address)": {
        "details": "NFTs assigned to the zero address are considered invalid, and this  function throws for queries about the zero address.",
        "params": {
          "_owner": "An address for whom to query the balance"
        },
        "returns": {
          "_0": "The number of NFTs owned by `_owner`, possibly zero"
        }
      },
      "ownerOf(uint256)": {
        "details": "NFTs assigned to zero address are considered invalid, and queries  about them do throw.",
        "params": {
          "_tokenId": "The identifier for an NFT"
        },
        "returns": {
          "_0": "The address of the owner of the NFT"
        }
      },
      "transferFrom(address,address,uint256)": {
        "details": "Throws unless `msg.sender` is the current owner, an authorized  operator, or the approved address for this NFT. Throws if `_from` is  not the current owner. Throws if `_to` is the zero address. Throws if  `_tokenId` is not a valid NFT.",
        "params": {
          "_from": "The current owner of the NFT",
          "_to": "The new owner",
          "_tokenId": "The NFT to transfer"
        }
      }
    },
    "version": 1
  },
  "userdoc": {
    "kind": "user",
    "methods": {
      "approve(address,uint256)": {
        "notice": "Change or reaffirm the approved address for an NFT"
      },
      "balanceOf(address)": {
        "notice": "Count all NFTs assigned to an owner"
      },
      "ownerOf(uint256)": {
        "notice": "Find the owner of an NFT"
      },
      "transferFrom(address,address,uint256)": {
        "notice": "Transfer ownership of an NFT -- THE CALLER IS RESPONSIBLE  TO CONFIRM THAT `_to` IS CAPABLE OF RECEIVING NFTS OR ELSE  THEY MAY BE PERMANENTLY LOST"
      }
    },
    "version": 1
  }
}