{
  "contractName": "ERC721Connector",
  "abi": [
    {
      "inputs": [
        {
          "internalType": "string",
          "name": "__name",
          "type": "string"
        },
        {
          "internalType": "string",
          "name": "__symbol",
          "type": "string"
        },
        {
          "internalType": "string",
          "name": "__tokenURI",
          "type": "string"
        }
      ],
      "stateMutability": "nonpayable",
      "type": "constructor"
    },
    {
      "anonymous": false,
      "inputs": [
        {
          "indexed": true,
          "internalType": "address",
          "name": "_owner",
          "type": "address"
        },
        {
          "indexed": true,
          "internalType": "address",
          "name": "_approved",
          "type": "address"
        },
        {
          "indexed": true,
          "internalType": "uint256",
          "name": "_tokenId",
          "type": "uint256"
        }
      ],
      "name": "Approval",
      "type": "event"
    },
    {
      "anonymous": false,
      "inputs": [
        {
          "indexed": true,
          "internalType": "address",
          "name": "_owner",
          "type": "address"
        },
        {
          "indexed": true,
          "internalType": "address",
          "name": "_operator",
          "type": "address"
        },
        {
          "indexed": false,
          "internalType": "bool",
          "name": "_approved",
          "type": "bool"
        }
      ],
      "name": "ApprovalForAll",
      "type": "event"
    },
    {
      "anonymous": false,
      "inputs": [
        {
          "indexed": true,
          "internalType": "address",
          "name": "_from",
          "type": "address"
        },
        {
          "indexed": true,
          "internalType": "address",
          "name": "_to",
          "type": "address"
        },
        {
          "indexed": true,
          "internalType": "uint256",
          "name": "_tokenId",
          "type": "uint256"
        }
      ],
      "name": "Transfer",
      "type": "event"
    },
    {
      "inputs": [
        {
          "internalType": "address",
          "name": "_approved",
          "type": "address"
        },
        {
          "internalType": "uint256",
          "name": "_tokenId",
          "type": "uint256"
        }
      ],
      "name": "approve",
      "outputs": [],
      "stateMutability": "payable",
      "type": "function"
    },
    {
      "inputs": [
        {
          "internalType": "address",
          "name": "_owner",
          "type": "address"
        }
      ],
      "name": "balanceOf",
      "outputs": [
        {
          "internalType": "uint256",
          "name": "",
          "type": "uint256"
        }
      ],
      "stateMutability": "view",
      "type": "function"
    },
    {
      "inputs": [],
      "name": "name",
      "outputs": [
        {
          "internalType": "string",
          "name": "",
          "type": "string"
        }
      ],
      "stateMutability": "view",
      "type": "function"
    },
    {
      "inputs": [
        {
          "internalType": "uint256",
          "name": "_tokenId",
          "type": "uint256"
        }
      ],
      "name": "ownerOf",
      "outputs": [
        {
          "internalType": "address",
          "name": "",
          "type": "address"
        }
      ],
      "stateMutability": "view",
      "type": "function"
    },
    {
      "inputs": [
        {
          "internalType": "bytes4",
          "name": "_interfaceID",
          "type": "bytes4"
        }
      ],
      "name": "supportsInterface",
      "outputs": [
        {
          "internalType": "bool",
          "name": "",
          "type": "bool"
        }
      ],
      "stateMutability": "view",
      "type": "function"
    },
    {
      "inputs": [],
      "name": "symbol",
      "outputs": [
        {
          "internalType": "string",
          "name": "",
          "type": "string"
        }
      ],
      "stateMutability": "view",
      "type": "function"
    },
    {
      "inputs": [
        {
          "internalType": "uint256",
          "name": "_index",
          "type": "uint256"
        }
      ],
      "name": "tokenByIndex",
      "outputs": [
        {
          "internalType": "uint256",
          "name": "",
          "type": "uint256"
        }
      ],
      "stateMutability": "view",
      "type": "function"
    },
    {
      "inputs": [
        {
          "internalType": "address",
          "name": "_owner",
          "type": "address"
        },
        {
          "internalType": "uint256",
          "name": "_index",
          "type": "uint256"
        }
      ],
      "name": "tokenOfOwnerByIndex",
      "outputs": [
        {
          "internalType": "uint256",
          "name": "",
          "type": "uint256"
        }
      ],
      "stateMutability": "view",
      "type": "function"
    },
    {
      "inputs": [
        {
          "internalType": "uint256",
          "name": "_tokenId",
          "type": "uint256"
        }
      ],
      "name": "tokenURI",
      "outputs": [
        {
          "internalType": "string",
          "name": "",
          "type": "string"
        }
      ],
      "stateMutability": "view",
      "type": "function"
    },
    {
      "inputs": [],
      "name": "totalSupply",
      "outputs": [
        {
          "internalType": "uint256",
          "name": "",
          "type": "uint256"
        }
      ],
      "stateMutability": "view",
      "type": "function"
    },
    {
      "inputs": [
        {
          "internalType": "address",
          "name": "_from",
          "type": "address"
        },
        {
          "internalType": "address",
          "name": "_to",
          "type": "address"
        },
        {
          "internalType": "uint256",
          "name": "_tokenId",
          "type": "uint256"
        }
      ],
      "name": "transferFrom",
      "outputs": [],
      "stateMutability": "payable",
      "type": "function"
    }
  ],
  "bytecode": "0x60806040523480156200001157600080fd5b5060405162001137380380620011378339810160408190526200003491620002fe565b828282620000627f01ffc9a7a5cef8baa21ed3c5c0d7e23accb804b619e9333b597f47a0d84076e262000107565b8251620000779060019060208601906200018b565b5081516200008d9060029060208501906200018b565b508051620000a39060039060208401906200018b565b506000620000b8635b5e139f60e01b62000107565b50620000e992507f304ad1f2afea4ffb313492ce5bd338832dfd9845798d2faba4c0462e1ca9a2a991505062000107565b6000620000fd63780e9d6360e01b62000107565b50505050620003cb565b6001600160e01b03198082169003620001665760405162461bcd60e51b815260206004820152601c60248201527f4552433136353a20496e76616c6964205f696e74657266616365496400000000604482015260640160405180910390fd5b6001600160e01b0319166000908152602081905260409020805460ff19166001179055565b82805462000199906200038f565b90600052602060002090601f016020900481019282620001bd576000855562000208565b82601f10620001d857805160ff191683800117855562000208565b8280016001018555821562000208579182015b8281111562000208578251825591602001919060010190620001eb565b50620002169291506200021a565b5090565b5b808211156200021657600081556001016200021b565b634e487b7160e01b600052604160045260246000fd5b600082601f8301126200025957600080fd5b81516001600160401b038082111562000276576200027662000231565b604051601f8301601f19908116603f01168101908282118183101715620002a157620002a162000231565b81604052838152602092508683858801011115620002be57600080fd5b600091505b83821015620002e25785820183015181830184015290820190620002c3565b83821115620002f45760008385830101525b9695505050505050565b6000806000606084860312156200031457600080fd5b83516001600160401b03808211156200032c57600080fd5b6200033a8783880162000247565b945060208601519150808211156200035157600080fd5b6200035f8783880162000247565b935060408601519150808211156200037657600080fd5b50620003858682870162000247565b9150509250925092565b600181811c90821680620003a457607f821691505b602082108103620003c557634e487b7160e01b600052602260045260246000fd5b50919050565b610d5c80620003db6000396000f3fe60806040526004361061009c5760003560e01c80632f745c59116100645780632f745c59146101595780634f6ccce7146101795780636352211e1461019957806370a08231146101d157806395d89b41146101f1578063c87b56dd1461020657600080fd5b806301ffc9a7146100a157806306fdde03146100f0578063095ea7b31461011257806318160ddd1461012757806323b872dd14610146575b600080fd5b3480156100ad57600080fd5b506100db6100bc3660046109f8565b6001600160e01b03191660009081526020819052604090205460ff1690565b60405190151581526020015b60405180910390f35b3480156100fc57600080fd5b50610105610226565b6040516100e79190610a22565b610125610120366004610a8f565b6102b8565b005b34801561013357600080fd5b506007545b6040519081526020016100e7565b610125610154366004610abb565b610481565b34801561016557600080fd5b50610138610174366004610a8f565b610502565b34801561018557600080fd5b50610138610194366004610afc565b6105d1565b3480156101a557600080fd5b506101b96101b4366004610afc565b610661565b6040516001600160a01b0390911681526020016100e7565b3480156101dd57600080fd5b506101386101ec366004610b15565b6106cc565b3480156101fd57600080fd5b5061010561074c565b34801561021257600080fd5b50610105610221366004610afc565b61075b565b60606001805461023590610b32565b80601f016020809104026020016040519081016040528092919081815260200182805461026190610b32565b80156102ae5780601f10610283576101008083540402835291602001916102ae565b820191906000526020600020905b81548152906001019060200180831161029157829003601f168201915b5050505050905090565b6040516331a9108f60e11b8152600481018290523390829082903090636352211e90602401602060405180830381865afa1580156102fa573d6000803e3d6000fd5b505050506040513d601f19601f8201168201806040525081019061031e9190610b6c565b6001600160a01b03161461034d5760405162461bcd60e51b815260040161034490610b89565b60405180910390fd5b6040516331a9108f60e11b8152600481018490523090636352211e90602401602060405180830381865afa158015610389573d6000803e3d6000fd5b505050506040513d601f19601f820116820180604052508101906103ad9190610b6c565b6001600160a01b0316846001600160a01b0316036104265760405162461bcd60e51b815260206004820152603060248201527f4552433732313a20417070726f76616c20746f2063757272656e74206f776e6560448201526f1c881a5cc81b9bddc8185b1b1bddd95960821b6064820152608401610344565b60008381526006602052604080822080546001600160a01b0319166001600160a01b0388169081179091559051859233917f8c5be1e5ebec7d5bd14f71427d1e84f3dd0314c0f7b2291e5b200ac8c7c3b9259190a450505050565b61048b3382610787565b6104f25760405162461bcd60e51b815260206004820152603260248201527f4552433732313a2073656e646572206e6f7420746865206f776e6572206e6f7260448201527108185c1c1c9bdd9959081d1bc8191bc81a5d60721b6064820152608401610344565b6104fd83838361088b565b505050565b6000826001600160a01b03811661052b5760405162461bcd60e51b815260040161034490610bde565b610534846106cc565b83106105935760405162461bcd60e51b815260206004820152602860248201527f4552433732313a206f776e657220696e646578206973206f7574206f662074686044820152676520626f756e647360c01b6064820152608401610344565b6001600160a01b03841660009081526009602052604090208054849081106105bd576105bd610c2c565b906000526020600020015491505092915050565b60006105dc60075490565b821061063c5760405162461bcd60e51b815260206004820152602960248201527f4552433732313a20676c6f62616c20696e646578206973206f7574206f662074604482015268686520626f756e647360b81b6064820152608401610344565b6007828154811061064f5761064f610c2c565b90600052602060002001549050919050565b6000818152600460205260408120546001600160a01b0316806106c65760405162461bcd60e51b815260206004820152601860248201527f4552433732313a20696e76616c6964205f746f6b656e496400000000000000006044820152606401610344565b92915050565b60006001600160a01b0382166107305760405162461bcd60e51b815260206004820152602360248201527f4552433732313a207a65726f2061646472657373206973206e6f7420616c6c6f6044820152621dd95960ea1b6064820152608401610344565b506001600160a01b031660009081526005602052604090205490565b60606002805461023590610b32565b6060600382604051602001610771929190610c42565b6040516020818303038152906040529050919050565b6000818152600460205260408120546001600160a01b03166107eb5760405162461bcd60e51b815260206004820152601c60248201527f4552433732313a20546f6b656e20646f6573206e6f74206578697374000000006044820152606401610344565b6040516331a9108f60e11b8152600481018390526001600160a01b038416903090636352211e90602401602060405180830381865afa158015610832573d6000803e3d6000fd5b505050506040513d601f19601f820116820180604052508101906108569190610b6c565b6001600160a01b0316148061088457506000828152600660205260409020546001600160a01b038481169116145b9392505050565b816001600160a01b0381166108b25760405162461bcd60e51b815260040161034490610bde565b6040516331a9108f60e11b815260048101839052849083906001600160a01b038316903090636352211e90602401602060405180830381865afa1580156108fd573d6000803e3d6000fd5b505050506040513d601f19601f820116820180604052508101906109219190610b6c565b6001600160a01b0316146109475760405162461bcd60e51b815260040161034490610b89565b6001600160a01b038616600090815260056020526040812080549161096b83610cf6565b90915550506001600160a01b038516600090815260056020526040812080549161099483610d0d565b909155505060008481526004602052604080822080546001600160a01b0319166001600160a01b0389811691821790925591518793918a16917fddf252ad1be2c89b69c2b068fc378daa952ba7f163c4a11628f55a4df523b3ef91a4505050505050565b600060208284031215610a0a57600080fd5b81356001600160e01b03198116811461088457600080fd5b600060208083528351808285015260005b81811015610a4f57858101830151858201604001528201610a33565b81811115610a61576000604083870101525b50601f01601f1916929092016040019392505050565b6001600160a01b0381168114610a8c57600080fd5b50565b60008060408385031215610aa257600080fd5b8235610aad81610a77565b946020939093013593505050565b600080600060608486031215610ad057600080fd5b8335610adb81610a77565b92506020840135610aeb81610a77565b929592945050506040919091013590565b600060208284031215610b0e57600080fd5b5035919050565b600060208284031215610b2757600080fd5b813561088481610a77565b600181811c90821680610b4657607f821691505b602082108103610b6657634e487b7160e01b600052602260045260246000fd5b50919050565b600060208284031215610b7e57600080fd5b815161088481610a77565b60208082526035908201527f4552433732313a207472616e736665722068617320746f2062652065786563756040820152743a32b21037b7363c90313c903a34329037b73bb2b960591b606082015260800190565b6020808252602e908201527f4552433732313a206d696e74696e6720746f207a65726f20616464726573732060408201526d1a5cc81b9bdd08185b1b1bddd95960921b606082015260800190565b634e487b7160e01b600052603260045260246000fd5b600080845481600182811c915080831680610c5e57607f831692505b60208084108203610c7d57634e487b7160e01b86526022600452602486fd5b818015610c915760018114610ca257610ccf565b60ff19861689528489019650610ccf565b60008b81526020902060005b86811015610cc75781548b820152908501908301610cae565b505084890196505b509785525050509301949350505050565b634e487b7160e01b600052601160045260246000fd5b600081610d0557610d05610ce0565b506000190190565b600060018201610d1f57610d1f610ce0565b506001019056fea26469706673582212200b1ea3177ce63828ad7ee05fc6832d49abbc621aeeb247b1cdd698f50581ceea64736f6c634300080d0033",
  "immutableReferences": {},
  "source": "// SPDX-License-Identifier: MIT\npragma solidity >=0.8.0 <0.9.0;\n\nimport \"./ERC721Metadata.sol\";\nimport \"./ERC721Enumerable.sol\";\n\ncontract ERC721Connector is ERC721Metadata, ERC721Enumerable {\n  constructor(\n    string memory __name,\n    string memory __symbol,\n    string memory __tokenURI\n  ) ERC721Metadata(__name, __symbol, __tokenURI) {}\n}\n",
  "sourcePath": "/home/fabianorodrigo/Projetos/solidity/udemy/nft-marketplace-truffle/src/contracts/ERC721Connector.sol",
  "compiler": {
    "name": "solc",
    "version": "0.8.13+commit.abaa5c0e.Emscripten.clang"
  },
  "schemaVersion": "3.4.7",
  "updatedAt": "2022-05-13T12:28:11.223Z",
  "devdoc": {
    "kind": "dev",
    "methods": {
      "approve(address,uint256)": {
        "details": "The zero address indicates there is no approved address.  Throws unless `msg.sender` is the current NFT owner, or an authorized  operator of the current owner.",
        "params": {
          "_approved": "The new approved NFT controller",
          "_tokenId": "The NFT to approve"
        }
      },
      "balanceOf(address)": {
        "details": "NFTs assigned to the zero address are considered invalid, and this  function throws for queries about the zero address.",
        "params": {
          "_owner": "An address for whom to query the balance"
        },
        "returns": {
          "_0": "The number of NFTs owned by `_owner`, possibly zero"
        }
      },
      "ownerOf(uint256)": {
        "details": "NFTs assigned to zero address are considered invalid, and queries  about them do throw.",
        "params": {
          "_tokenId": "The identifier for an NFT"
        },
        "returns": {
          "_0": "The address of the owner of the NFT"
        }
      },
      "supportsInterface(bytes4)": {
        "details": "Interface identification is specified in ERC-165. This function  uses less than 30,000 gas.",
        "params": {
          "_interfaceID": "The interface identifier, as specified in ERC-165"
        },
        "returns": {
          "_0": "`true` if the contract implements `interfaceID` and  `interfaceID` is not 0xffffffff, `false` otherwise"
        }
      },
      "tokenByIndex(uint256)": {
        "details": "Throws if `_index` >= `totalSupply()`.",
        "params": {
          "_index": "A counter less than `totalSupply()`"
        },
        "returns": {
          "_0": "The token identifier for the `_index`th NFT,  (sort order not specified)"
        }
      },
      "tokenOfOwnerByIndex(address,uint256)": {
        "details": "Throws if `_index` >= `balanceOf(_owner)` or if  `_owner` is the zero address, representing invalid NFTs.",
        "params": {
          "_index": "A counter less than `balanceOf(_owner)`",
          "_owner": "An address where we are interested in NFTs owned by them"
        },
        "returns": {
          "_0": "The token identifier for the `_index`th NFT assigned to `_owner`,   (sort order not specified)"
        }
      },
      "tokenURI(uint256)": {
        "details": "Throws if `_tokenId` is not a valid NFT. URIs are defined in RFC  3986. The URI may point to a JSON file that conforms to the \"ERC721  Metadata JSON Schema\"."
      },
      "totalSupply()": {
        "returns": {
          "_0": "A count of valid NFTs tracked by this contract, where each one of  them has an assigned and queryable owner not equal to the zero address"
        }
      },
      "transferFrom(address,address,uint256)": {
        "details": "Throws unless `msg.sender` is the current owner, an authorized  operator, or the approved address for this NFT. Throws if `_from` is  not the current owner. Throws if `_to` is the zero address. Throws if  `_tokenId` is not a valid NFT.",
        "params": {
          "_from": "The current owner of the NFT",
          "_to": "The new owner",
          "_tokenId": "The NFT to transfer"
        }
      }
    },
    "version": 1
  },
  "userdoc": {
    "kind": "user",
    "methods": {
      "approve(address,uint256)": {
        "notice": "Change or reaffirm the approved address for an NFT"
      },
      "balanceOf(address)": {
        "notice": "Count all NFTs assigned to an owner"
      },
      "name()": {
        "notice": "A descriptive name for a collection of NFTs in this contract"
      },
      "ownerOf(uint256)": {
        "notice": "Find the owner of an NFT"
      },
      "supportsInterface(bytes4)": {
        "notice": "Query if a contract implements an interface"
      },
      "symbol()": {
        "notice": "An abbreviated name for NFTs in this contract"
      },
      "tokenByIndex(uint256)": {
        "notice": "Enumerate valid NFTs"
      },
      "tokenOfOwnerByIndex(address,uint256)": {
        "notice": "Enumerate NFTs assigned to an owner"
      },
      "tokenURI(uint256)": {
        "notice": "A distinct Uniform Resource Identifier (URI) for a given asset."
      },
      "totalSupply()": {
        "notice": "Count NFTs tracked by this contract"
      },
      "transferFrom(address,address,uint256)": {
        "notice": "Transfer ownership of an NFT -- THE CALLER IS RESPONSIBLE  TO CONFIRM THAT `_to` IS CAPABLE OF RECEIVING NFTS OR ELSE  THEY MAY BE PERMANENTLY LOST"
      }
    },
    "version": 1
  }
}