{
  "contractName": "ERC721Metadata",
  "abi": [
    {
      "inputs": [
        {
          "internalType": "string",
          "name": "__name",
          "type": "string"
        },
        {
          "internalType": "string",
          "name": "__symbol",
          "type": "string"
        },
        {
          "internalType": "string",
          "name": "__tokenURI",
          "type": "string"
        }
      ],
      "stateMutability": "nonpayable",
      "type": "constructor"
    },
    {
      "inputs": [
        {
          "internalType": "bytes4",
          "name": "_interfaceID",
          "type": "bytes4"
        }
      ],
      "name": "supportsInterface",
      "outputs": [
        {
          "internalType": "bool",
          "name": "",
          "type": "bool"
        }
      ],
      "stateMutability": "view",
      "type": "function"
    },
    {
      "inputs": [],
      "name": "name",
      "outputs": [
        {
          "internalType": "string",
          "name": "",
          "type": "string"
        }
      ],
      "stateMutability": "view",
      "type": "function"
    },
    {
      "inputs": [],
      "name": "symbol",
      "outputs": [
        {
          "internalType": "string",
          "name": "",
          "type": "string"
        }
      ],
      "stateMutability": "view",
      "type": "function"
    },
    {
      "inputs": [
        {
          "internalType": "uint256",
          "name": "_tokenId",
          "type": "uint256"
        }
      ],
      "name": "tokenURI",
      "outputs": [
        {
          "internalType": "string",
          "name": "",
          "type": "string"
        }
      ],
      "stateMutability": "view",
      "type": "function"
    }
  ],
  "bytecode": "0x608060405234801561001057600080fd5b5060405161069a38038061069a83398101604081905261002f9161028d565b6100587f01ffc9a7a5cef8baa21ed3c5c0d7e23accb804b619e9333b597f47a0d84076e26100af565b825161006b906001906020860190610132565b50815161007f906002906020850190610132565b508051610093906003906020840190610132565b5060006100a6635b5e139f60e01b6100af565b5050505061034e565b6001600160e01b0319808216900361010d5760405162461bcd60e51b815260206004820152601c60248201527f4552433136353a20496e76616c6964205f696e74657266616365496400000000604482015260640160405180910390fd5b6001600160e01b0319166000908152602081905260409020805460ff19166001179055565b82805461013e90610314565b90600052602060002090601f01602090048101928261016057600085556101a6565b82601f1061017957805160ff19168380011785556101a6565b828001600101855582156101a6579182015b828111156101a657825182559160200191906001019061018b565b506101b29291506101b6565b5090565b5b808211156101b257600081556001016101b7565b634e487b7160e01b600052604160045260246000fd5b600082601f8301126101f257600080fd5b81516001600160401b038082111561020c5761020c6101cb565b604051601f8301601f19908116603f01168101908282118183101715610234576102346101cb565b8160405283815260209250868385880101111561025057600080fd5b600091505b838210156102725785820183015181830184015290820190610255565b838211156102835760008385830101525b9695505050505050565b6000806000606084860312156102a257600080fd5b83516001600160401b03808211156102b957600080fd5b6102c5878388016101e1565b945060208601519150808211156102db57600080fd5b6102e7878388016101e1565b935060408601519150808211156102fd57600080fd5b5061030a868287016101e1565b9150509250925092565b600181811c9082168061032857607f821691505b60208210810361034857634e487b7160e01b600052602260045260246000fd5b50919050565b61033d8061035d6000396000f3fe608060405234801561001057600080fd5b506004361061004c5760003560e01c806301ffc9a71461005157806306fdde031461009357806395d89b41146100a8578063c87b56dd146100b0575b600080fd5b61007e61005f366004610190565b6001600160e01b03191660009081526020819052604090205460ff1690565b60405190151581526020015b60405180910390f35b61009b6100c3565b60405161008a91906101c1565b61009b610155565b61009b6100be366004610216565b610164565b6060600180546100d29061022f565b80601f01602080910402602001604051908101604052809291908181526020018280546100fe9061022f565b801561014b5780601f106101205761010080835404028352916020019161014b565b820191906000526020600020905b81548152906001019060200180831161012e57829003601f168201915b5050505050905090565b6060600280546100d29061022f565b606060038260405160200161017a929190610269565b6040516020818303038152906040529050919050565b6000602082840312156101a257600080fd5b81356001600160e01b0319811681146101ba57600080fd5b9392505050565b600060208083528351808285015260005b818110156101ee578581018301518582016040015282016101d2565b81811115610200576000604083870101525b50601f01601f1916929092016040019392505050565b60006020828403121561022857600080fd5b5035919050565b600181811c9082168061024357607f821691505b60208210810361026357634e487b7160e01b600052602260045260246000fd5b50919050565b600080845481600182811c91508083168061028557607f831692505b602080841082036102a457634e487b7160e01b86526022600452602486fd5b8180156102b857600181146102c9576102f6565b60ff198616895284890196506102f6565b60008b81526020902060005b868110156102ee5781548b8201529085019083016102d5565b505084890196505b50978552505050930194935050505056fea26469706673582212203a3777e701b0357f543864e47f1c22905b2371b7b4d0ff6928dfb0be2a58b3f264736f6c634300080d0033",
  "immutableReferences": {},
  "source": "// SPDX-License-Identifier: MIT\npragma solidity >=0.8.0 <0.9.0;\n\nimport \"./interfaces/IERC721Metadata.sol\";\nimport \"./ERC165.sol\";\n\n/// @title ERC-721 Non-Fungible Token Standard, optional metadata extension\n/// @dev See https://eips.ethereum.org/EIPS/eip-721\n///  Note: the ERC-165 identifier for this interface is 0x5b5e139f.\ncontract ERC721Metadata is IERC721Metadata, ERC165 {\n  string private _name;\n  string private _symbol;\n  string private _tokenURI;\n\n  constructor(\n    string memory __name,\n    string memory __symbol,\n    string memory __tokenURI\n  ) {\n    _name = __name;\n    _symbol = __symbol;\n    _tokenURI = __tokenURI;\n    IERC721Metadata i;\n    _registerInterface(\n      i.name.selector ^ i.symbol.selector ^ i.tokenURI.selector\n    );\n  }\n\n  /// @notice A descriptive name for a collection of NFTs in this contract\n  function name() external view override returns (string memory) {\n    return _name;\n  }\n\n  /// @notice An abbreviated name for NFTs in this contract\n  function symbol() external view override returns (string memory) {\n    return _symbol;\n  }\n\n  /// @notice A distinct Uniform Resource Identifier (URI) for a given asset.\n  /// @dev Throws if `_tokenId` is not a valid NFT. URIs are defined in RFC\n  ///  3986. The URI may point to a JSON file that conforms to the \"ERC721\n  ///  Metadata JSON Schema\".\n  function tokenURI(uint256 _tokenId) external view returns (string memory) {\n    return string(abi.encodePacked(_tokenURI, _tokenId));\n  }\n}\n",
  "sourcePath": "/home/fabianorodrigo/Projetos/solidity/udemy/nft-marketplace-truffle/src/contracts/ERC721Metadata.sol",
  "compiler": {
    "name": "solc",
    "version": "0.8.13+commit.abaa5c0e.Emscripten.clang"
  },
  "schemaVersion": "3.4.7",
  "updatedAt": "2022-05-13T12:28:11.228Z",
  "devdoc": {
    "details": "See https://eips.ethereum.org/EIPS/eip-721  Note: the ERC-165 identifier for this interface is 0x5b5e139f.",
    "kind": "dev",
    "methods": {
      "supportsInterface(bytes4)": {
        "details": "Interface identification is specified in ERC-165. This function  uses less than 30,000 gas.",
        "params": {
          "_interfaceID": "The interface identifier, as specified in ERC-165"
        },
        "returns": {
          "_0": "`true` if the contract implements `interfaceID` and  `interfaceID` is not 0xffffffff, `false` otherwise"
        }
      },
      "tokenURI(uint256)": {
        "details": "Throws if `_tokenId` is not a valid NFT. URIs are defined in RFC  3986. The URI may point to a JSON file that conforms to the \"ERC721  Metadata JSON Schema\"."
      }
    },
    "title": "ERC-721 Non-Fungible Token Standard, optional metadata extension",
    "version": 1
  },
  "userdoc": {
    "kind": "user",
    "methods": {
      "name()": {
        "notice": "A descriptive name for a collection of NFTs in this contract"
      },
      "supportsInterface(bytes4)": {
        "notice": "Query if a contract implements an interface"
      },
      "symbol()": {
        "notice": "An abbreviated name for NFTs in this contract"
      },
      "tokenURI(uint256)": {
        "notice": "A distinct Uniform Resource Identifier (URI) for a given asset."
      }
    },
    "version": 1
  }
}