{
  "contractName": "ERC721Enumerable",
  "abi": [
    {
      "anonymous": false,
      "inputs": [
        {
          "indexed": true,
          "internalType": "address",
          "name": "_owner",
          "type": "address"
        },
        {
          "indexed": true,
          "internalType": "address",
          "name": "_approved",
          "type": "address"
        },
        {
          "indexed": true,
          "internalType": "uint256",
          "name": "_tokenId",
          "type": "uint256"
        }
      ],
      "name": "Approval",
      "type": "event"
    },
    {
      "anonymous": false,
      "inputs": [
        {
          "indexed": true,
          "internalType": "address",
          "name": "_from",
          "type": "address"
        },
        {
          "indexed": true,
          "internalType": "address",
          "name": "_to",
          "type": "address"
        },
        {
          "indexed": true,
          "internalType": "uint256",
          "name": "_tokenId",
          "type": "uint256"
        }
      ],
      "name": "Transfer",
      "type": "event"
    },
    {
      "inputs": [
        {
          "internalType": "address",
          "name": "_approved",
          "type": "address"
        },
        {
          "internalType": "uint256",
          "name": "_tokenId",
          "type": "uint256"
        }
      ],
      "name": "approve",
      "outputs": [],
      "stateMutability": "payable",
      "type": "function"
    },
    {
      "inputs": [
        {
          "internalType": "address",
          "name": "_owner",
          "type": "address"
        }
      ],
      "name": "balanceOf",
      "outputs": [
        {
          "internalType": "uint256",
          "name": "",
          "type": "uint256"
        }
      ],
      "stateMutability": "view",
      "type": "function"
    },
    {
      "inputs": [
        {
          "internalType": "uint256",
          "name": "_tokenId",
          "type": "uint256"
        }
      ],
      "name": "ownerOf",
      "outputs": [
        {
          "internalType": "address",
          "name": "",
          "type": "address"
        }
      ],
      "stateMutability": "view",
      "type": "function"
    },
    {
      "inputs": [
        {
          "internalType": "address",
          "name": "_from",
          "type": "address"
        },
        {
          "internalType": "address",
          "name": "_to",
          "type": "address"
        },
        {
          "internalType": "uint256",
          "name": "_tokenId",
          "type": "uint256"
        }
      ],
      "name": "transferFrom",
      "outputs": [],
      "stateMutability": "payable",
      "type": "function"
    },
    {
      "inputs": [],
      "name": "totalSupply",
      "outputs": [
        {
          "internalType": "uint256",
          "name": "",
          "type": "uint256"
        }
      ],
      "stateMutability": "view",
      "type": "function"
    },
    {
      "inputs": [
        {
          "internalType": "uint256",
          "name": "_index",
          "type": "uint256"
        }
      ],
      "name": "tokenByIndex",
      "outputs": [
        {
          "internalType": "uint256",
          "name": "",
          "type": "uint256"
        }
      ],
      "stateMutability": "view",
      "type": "function"
    },
    {
      "inputs": [
        {
          "internalType": "address",
          "name": "_owner",
          "type": "address"
        },
        {
          "internalType": "uint256",
          "name": "_index",
          "type": "uint256"
        }
      ],
      "name": "tokenOfOwnerByIndex",
      "outputs": [
        {
          "internalType": "uint256",
          "name": "",
          "type": "uint256"
        }
      ],
      "stateMutability": "view",
      "type": "function"
    }
  ],
  "bytecode": "0x608060405234801561001057600080fd5b506108fd806100206000396000f3fe6080604052600436106100705760003560e01c80632f745c591161004e5780632f745c59146100c15780634f6ccce7146100e15780636352211e1461010157806370a082311461013957600080fd5b8063095ea7b31461007557806318160ddd1461008a57806323b872dd146100ae575b600080fd5b610088610083366004610701565b610159565b005b34801561009657600080fd5b506003545b6040519081526020015b60405180910390f35b6100886100bc36600461072d565b610322565b3480156100cd57600080fd5b5061009b6100dc366004610701565b610332565b3480156100ed57600080fd5b5061009b6100fc36600461076e565b610401565b34801561010d57600080fd5b5061012161011c36600461076e565b610491565b6040516001600160a01b0390911681526020016100a5565b34801561014557600080fd5b5061009b610154366004610787565b6104fc565b6040516331a9108f60e11b8152600481018290523390829082903090636352211e90602401602060405180830381865afa15801561019b573d6000803e3d6000fd5b505050506040513d601f19601f820116820180604052508101906101bf91906107ab565b6001600160a01b0316146101ee5760405162461bcd60e51b81526004016101e5906107c8565b60405180910390fd5b6040516331a9108f60e11b8152600481018490523090636352211e90602401602060405180830381865afa15801561022a573d6000803e3d6000fd5b505050506040513d601f19601f8201168201806040525081019061024e91906107ab565b6001600160a01b0316846001600160a01b0316036102c75760405162461bcd60e51b815260206004820152603060248201527f4552433732313a20417070726f76616c20746f2063757272656e74206f776e6560448201526f1c881a5cc81b9bddc8185b1b1bddd95960821b60648201526084016101e5565b60008381526002602052604080822080546001600160a01b0319166001600160a01b0388169081179091559051859233917f8c5be1e5ebec7d5bd14f71427d1e84f3dd0314c0f7b2291e5b200ac8c7c3b9259190a450505050565b61032d83838361057c565b505050565b6000826001600160a01b03811661035b5760405162461bcd60e51b81526004016101e59061081d565b610364846104fc565b83106103c35760405162461bcd60e51b815260206004820152602860248201527f4552433732313a206f776e657220696e646578206973206f7574206f662074686044820152676520626f756e647360c01b60648201526084016101e5565b6001600160a01b03841660009081526005602052604090208054849081106103ed576103ed61086b565b906000526020600020015491505092915050565b600061040c60035490565b821061046c5760405162461bcd60e51b815260206004820152602960248201527f4552433732313a20676c6f62616c20696e646578206973206f7574206f662074604482015268686520626f756e647360b81b60648201526084016101e5565b6003828154811061047f5761047f61086b565b90600052602060002001549050919050565b6000818152602081905260408120546001600160a01b0316806104f65760405162461bcd60e51b815260206004820152601860248201527f4552433732313a20696e76616c6964205f746f6b656e4964000000000000000060448201526064016101e5565b92915050565b60006001600160a01b0382166105605760405162461bcd60e51b815260206004820152602360248201527f4552433732313a207a65726f2061646472657373206973206e6f7420616c6c6f6044820152621dd95960ea1b60648201526084016101e5565b506001600160a01b031660009081526001602052604090205490565b816001600160a01b0381166105a35760405162461bcd60e51b81526004016101e59061081d565b6040516331a9108f60e11b815260048101839052849083906001600160a01b038316903090636352211e90602401602060405180830381865afa1580156105ee573d6000803e3d6000fd5b505050506040513d601f19601f8201168201806040525081019061061291906107ab565b6001600160a01b0316146106385760405162461bcd60e51b81526004016101e5906107c8565b6001600160a01b038616600090815260016020526040812080549161065c83610897565b90915550506001600160a01b0385166000908152600160205260408120805491610685836108ae565b909155505060008481526020819052604080822080546001600160a01b0319166001600160a01b0389811691821790925591518793918a16917fddf252ad1be2c89b69c2b068fc378daa952ba7f163c4a11628f55a4df523b3ef91a4505050505050565b6001600160a01b03811681146106fe57600080fd5b50565b6000806040838503121561071457600080fd5b823561071f816106e9565b946020939093013593505050565b60008060006060848603121561074257600080fd5b833561074d816106e9565b9250602084013561075d816106e9565b929592945050506040919091013590565b60006020828403121561078057600080fd5b5035919050565b60006020828403121561079957600080fd5b81356107a4816106e9565b9392505050565b6000602082840312156107bd57600080fd5b81516107a4816106e9565b60208082526035908201527f4552433732313a207472616e736665722068617320746f2062652065786563756040820152743a32b21037b7363c90313c903a34329037b73bb2b960591b606082015260800190565b6020808252602e908201527f4552433732313a206d696e74696e6720746f207a65726f20616464726573732060408201526d1a5cc81b9bdd08185b1b1bddd95960921b606082015260800190565b634e487b7160e01b600052603260045260246000fd5b634e487b7160e01b600052601160045260246000fd5b6000816108a6576108a6610881565b506000190190565b6000600182016108c0576108c0610881565b506001019056fea2646970667358221220f3827d04986f845cdf0a9b107ee36f525e511eacd72d1b28b52fb86b955ee06464736f6c634300080d0033",
  "immutableReferences": {},
  "source": "// SPDX-License-Identifier: MIT\npragma solidity >=0.8.0 <0.9.0;\n\nimport \"./ERC721.sol\";\n\n/// @title ERC-721 Non-Fungible Token Standard, optional enumeration extension\n/// @dev See https://eips.ethereum.org/EIPS/eip-721\n///  Note: the ERC-165 identifier for this interface is 0x780e9d63.\ncontract ERC721Enumerable is ERC721 {\n  uint256[] private _allTokens;\n\n  // mapping from tokenId to position in _allTokens array\n  mapping(uint256 => uint256) private _tokenId_index;\n  // mapping of owner to list of all owner token ids\n  mapping(address => uint256[]) private _owner_tokensIdsArray;\n  // mapping from tokenId index of the owner tokens lists\n  mapping(uint256 => uint256) private _ownedTokensIndex;\n\n  /// @notice Count NFTs tracked by this contract\n  /// @return A count of valid NFTs tracked by this contract, where each one of\n  ///  them has an assigned and queryable owner not equal to the zero address\n  function totalSupply() public view returns (uint256) {\n    return _allTokens.length;\n  }\n\n  /// @notice Enumerate valid NFTs\n  /// @dev Throws if `_index` >= `totalSupply()`.\n  /// @param _index A counter less than `totalSupply()`\n  /// @return The token identifier for the `_index`th NFT,\n  ///  (sort order not specified)\n  function tokenByIndex(uint256 _index) external view returns (uint256) {\n    require(\n      _index < totalSupply(),\n      \"ERC721: global index is out of the bounds\"\n    );\n    return _allTokens[_index];\n  }\n\n  /// @notice Enumerate NFTs assigned to an owner\n  /// @dev Throws if `_index` >= `balanceOf(_owner)` or if\n  ///  `_owner` is the zero address, representing invalid NFTs.\n  /// @param _owner An address where we are interested in NFTs owned by them\n  /// @param _index A counter less than `balanceOf(_owner)`\n  /// @return The token identifier for the `_index`th NFT assigned to `_owner`,\n  ///   (sort order not specified)\n  function tokenOfOwnerByIndex(address _owner, uint256 _index)\n    external\n    view\n    notZeroAccount(_owner)\n    returns (uint256)\n  {\n    require(\n      _index < balanceOf(_owner),\n      \"ERC721: owner index is out of the bounds\"\n    );\n    return _owner_tokensIdsArray[_owner][_index];\n  }\n\n  /// @notice mint a NFT with id {_tokenId} to the owner {_to}\n  function _mint(address _to, uint256 _tokenId) internal override(ERC721) {\n    super._mint(_to, _tokenId);\n    _addTokensToAllTokensEnumeration(_tokenId);\n    _addTokensToOwnerEnumeration(_to, _tokenId);\n  }\n\n  /// @notice add tokenId to the _allTokens array; add the index of the token indexed by the token id\n  /// in the mapping _tokenId_index\n  function _addTokensToAllTokensEnumeration(uint256 _tokenId) private {\n    // guarda a posio o NFT no mapping tendo como chave o tokenId\n    _tokenId_index[_tokenId] = _allTokens.length;\n    // guardar a lista de tokens id por owner\n\n    _allTokens.push(_tokenId);\n  }\n\n  /// @notice add address and tokenId to the _owner_tokensIdsArray and add  set\n  /// _ownedTokensIndex with the tokenId and the index considering the owners tokens\n  function _addTokensToOwnerEnumeration(address _to, uint256 _tokenId) private {\n    _ownedTokensIndex[_tokenId] = _owner_tokensIdsArray[_to].length;\n    _owner_tokensIdsArray[_to].push(_tokenId);\n  }\n}\n",
  "sourcePath": "/home/fabianorodrigo/Projetos/solidity/udemy/nft-marketplace-truffle/src/contracts/ERC721Enumerable.sol",
  "compiler": {
    "name": "solc",
    "version": "0.8.13+commit.abaa5c0e.Emscripten.clang"
  },
  "schemaVersion": "3.4.7",
  "updatedAt": "2022-05-11T14:40:25.637Z",
  "devdoc": {
    "details": "See https://eips.ethereum.org/EIPS/eip-721  Note: the ERC-165 identifier for this interface is 0x780e9d63.",
    "kind": "dev",
    "methods": {
      "approve(address,uint256)": {
        "details": "The zero address indicates there is no approved address.  Throws unless `msg.sender` is the current NFT owner, or an authorized  operator of the current owner.",
        "params": {
          "_approved": "The new approved NFT controller",
          "_tokenId": "The NFT to approve"
        }
      },
      "balanceOf(address)": {
        "details": "NFTs assigned to the zero address are considered invalid, and this  function throws for queries about the zero address.",
        "params": {
          "_owner": "An address for whom to query the balance"
        },
        "returns": {
          "_0": "The number of NFTs owned by `_owner`, possibly zero"
        }
      },
      "ownerOf(uint256)": {
        "details": "NFTs assigned to zero address are considered invalid, and queries  about them do throw.",
        "params": {
          "_tokenId": "The identifier for an NFT"
        },
        "returns": {
          "_0": "The address of the owner of the NFT"
        }
      },
      "tokenByIndex(uint256)": {
        "details": "Throws if `_index` >= `totalSupply()`.",
        "params": {
          "_index": "A counter less than `totalSupply()`"
        },
        "returns": {
          "_0": "The token identifier for the `_index`th NFT,  (sort order not specified)"
        }
      },
      "tokenOfOwnerByIndex(address,uint256)": {
        "details": "Throws if `_index` >= `balanceOf(_owner)` or if  `_owner` is the zero address, representing invalid NFTs.",
        "params": {
          "_index": "A counter less than `balanceOf(_owner)`",
          "_owner": "An address where we are interested in NFTs owned by them"
        },
        "returns": {
          "_0": "The token identifier for the `_index`th NFT assigned to `_owner`,   (sort order not specified)"
        }
      },
      "totalSupply()": {
        "returns": {
          "_0": "A count of valid NFTs tracked by this contract, where each one of  them has an assigned and queryable owner not equal to the zero address"
        }
      },
      "transferFrom(address,address,uint256)": {
        "details": "Throws unless `msg.sender` is the current owner, an authorized  operator, or the approved address for this NFT. Throws if `_from` is  not the current owner. Throws if `_to` is the zero address. Throws if  `_tokenId` is not a valid NFT.",
        "params": {
          "_from": "The current owner of the NFT",
          "_to": "The new owner",
          "_tokenId": "The NFT to transfer"
        }
      }
    },
    "title": "ERC-721 Non-Fungible Token Standard, optional enumeration extension",
    "version": 1
  },
  "userdoc": {
    "kind": "user",
    "methods": {
      "approve(address,uint256)": {
        "notice": "Change or reaffirm the approved address for an NFT"
      },
      "balanceOf(address)": {
        "notice": "Count all NFTs assigned to an owner"
      },
      "ownerOf(uint256)": {
        "notice": "Find the owner of an NFT"
      },
      "tokenByIndex(uint256)": {
        "notice": "Enumerate valid NFTs"
      },
      "tokenOfOwnerByIndex(address,uint256)": {
        "notice": "Enumerate NFTs assigned to an owner"
      },
      "totalSupply()": {
        "notice": "Count NFTs tracked by this contract"
      },
      "transferFrom(address,address,uint256)": {
        "notice": "Transfer ownership of an NFT -- THE CALLER IS RESPONSIBLE  TO CONFIRM THAT `_to` IS CAPABLE OF RECEIVING NFTS OR ELSE  THEY MAY BE PERMANENTLY LOST"
      }
    },
    "version": 1
  }
}