{
  "contractName": "KryptoBirdz",
  "abi": [
    {
      "inputs": [],
      "stateMutability": "nonpayable",
      "type": "constructor"
    },
    {
      "anonymous": false,
      "inputs": [
        {
          "indexed": true,
          "internalType": "address",
          "name": "_from",
          "type": "address"
        },
        {
          "indexed": true,
          "internalType": "address",
          "name": "_to",
          "type": "address"
        },
        {
          "indexed": true,
          "internalType": "uint256",
          "name": "_tokenId",
          "type": "uint256"
        }
      ],
      "name": "Transfer",
      "type": "event"
    },
    {
      "inputs": [
        {
          "internalType": "address",
          "name": "_owner",
          "type": "address"
        }
      ],
      "name": "balanceOf",
      "outputs": [
        {
          "internalType": "uint256",
          "name": "",
          "type": "uint256"
        }
      ],
      "stateMutability": "view",
      "type": "function",
      "constant": true
    },
    {
      "inputs": [
        {
          "internalType": "uint256",
          "name": "",
          "type": "uint256"
        }
      ],
      "name": "kriptoBirdz",
      "outputs": [
        {
          "internalType": "string",
          "name": "",
          "type": "string"
        }
      ],
      "stateMutability": "view",
      "type": "function",
      "constant": true
    },
    {
      "inputs": [],
      "name": "name",
      "outputs": [
        {
          "internalType": "string",
          "name": "",
          "type": "string"
        }
      ],
      "stateMutability": "view",
      "type": "function",
      "constant": true
    },
    {
      "inputs": [
        {
          "internalType": "uint256",
          "name": "_tokenId",
          "type": "uint256"
        }
      ],
      "name": "ownerOf",
      "outputs": [
        {
          "internalType": "address",
          "name": "",
          "type": "address"
        }
      ],
      "stateMutability": "view",
      "type": "function",
      "constant": true
    },
    {
      "inputs": [],
      "name": "symbol",
      "outputs": [
        {
          "internalType": "string",
          "name": "",
          "type": "string"
        }
      ],
      "stateMutability": "view",
      "type": "function",
      "constant": true
    },
    {
      "inputs": [
        {
          "internalType": "uint256",
          "name": "_index",
          "type": "uint256"
        }
      ],
      "name": "tokenByIndex",
      "outputs": [
        {
          "internalType": "uint256",
          "name": "",
          "type": "uint256"
        }
      ],
      "stateMutability": "view",
      "type": "function",
      "constant": true
    },
    {
      "inputs": [
        {
          "internalType": "address",
          "name": "_owner",
          "type": "address"
        },
        {
          "internalType": "uint256",
          "name": "_index",
          "type": "uint256"
        }
      ],
      "name": "tokenOfOwnerByIndex",
      "outputs": [
        {
          "internalType": "uint256",
          "name": "",
          "type": "uint256"
        }
      ],
      "stateMutability": "view",
      "type": "function",
      "constant": true
    },
    {
      "inputs": [],
      "name": "totalSupply",
      "outputs": [
        {
          "internalType": "uint256",
          "name": "",
          "type": "uint256"
        }
      ],
      "stateMutability": "view",
      "type": "function",
      "constant": true
    },
    {
      "inputs": [
        {
          "internalType": "string",
          "name": "_kryptoBird",
          "type": "string"
        }
      ],
      "name": "mint",
      "outputs": [],
      "stateMutability": "nonpayable",
      "type": "function"
    }
  ],
  "bytecode": "0x608060405234801561001057600080fd5b50604080518082018252600b81526a25b934b83a37a134b9323d60a91b60208083019182528351808501909452600684526525a124a9222d60d11b9084015281519192918391839161006491600091610082565b508051610078906001906020840190610082565b5050505050610155565b82805461008e9061011b565b90600052602060002090601f0160209004810192826100b057600085556100f6565b82601f106100c957805160ff19168380011785556100f6565b828001600101855582156100f6579182015b828111156100f65782518255916020019190600101906100db565b50610102929150610106565b5090565b5b808211156101025760008155600101610107565b600181811c9082168061012f57607f821691505b60208210810361014f57634e487b7160e01b600052602260045260246000fd5b50919050565b610a3d806101646000396000f3fe608060405234801561001057600080fd5b50600436106100935760003560e01c80636352211e116100665780636352211e146100ee57806370a082311461011957806395d89b411461012c578063b4eb308514610134578063d85d3d271461014757600080fd5b806306fdde031461009857806318160ddd146100b65780632f745c59146100c85780634f6ccce7146100db575b600080fd5b6100a061015c565b6040516100ad919061078d565b60405180910390f35b6004545b6040519081526020016100ad565b6100ba6100d63660046107dc565b6101ee565b6100ba6100e9366004610806565b610272565b6101016100fc366004610806565b6102ad565b6040516001600160a01b0390911681526020016100ad565b6100ba61012736600461081f565b610318565b6100a0610398565b6100a0610142366004610806565b6103a7565b61015a610155366004610857565b610453565b005b60606000805461016b90610908565b80601f016020809104026020016040519081016040528092919081815260200182805461019790610908565b80156101e45780601f106101b9576101008083540402835291602001916101e4565b820191906000526020600020905b8154815290600101906020018083116101c757829003601f168201915b5050505050905090565b6000826001600160a01b0381166102205760405162461bcd60e51b815260040161021790610942565b60405180910390fd5b61022984610318565b831061023457600080fd5b6001600160a01b038416600090815260066020526040902080548490811061025e5761025e610990565b906000526020600020015491505092915050565b600061027d60045490565b821061028857600080fd5b6004828154811061029b5761029b610990565b90600052602060002001549050919050565b6000818152600260205260408120546001600160a01b0316806103125760405162461bcd60e51b815260206004820152601860248201527f4552433732313a20696e76616c6964205f746f6b656e496400000000000000006044820152606401610217565b92915050565b60006001600160a01b03821661037c5760405162461bcd60e51b815260206004820152602360248201527f4552433732313a207a65726f2061646472657373206973206e6f7420616c6c6f6044820152621dd95960ea1b6064820152608401610217565b506001600160a01b031660009081526003602052604090205490565b60606001805461016b90610908565b600881815481106103b757600080fd5b9060005260206000200160009150905080546103d290610908565b80601f01602080910402602001604051908101604052809291908181526020018280546103fe90610908565b801561044b5780601f106104205761010080835404028352916020019161044b565b820191906000526020600020905b81548152906001019060200180831161042e57829003601f168201915b505050505081565b60098160405161046391906109a6565b9081526040519081900360200190205460ff16156104c35760405162461bcd60e51b815260206004820152601960248201527f4b726970746f4269726420616c726561647920657869737473000000000000006044820152606401610217565b600880546001810182556000919091528151610506917ff3f7a9fe364faab93b216da50a3214154f22a0a2b415b23a84c8169e8b636ee3019060208401906106c4565b50600854600090610519906001906109d8565b9050600160098360405161052d91906109a6565b908152604051908190036020019020805491151560ff19909216919091179055610557338261055b565b5050565b610565828261059e565b61055781600480546001810182556000919091527f8a35acfbc15ff81a39ae7d344fd709f28e8600b4aa8c65c6b64bfe7fe36bd19b0155565b816001600160a01b0381166105c55760405162461bcd60e51b815260040161021790610942565b60008281526002602052604090205482906001600160a01b03161561063a5760405162461bcd60e51b815260206004820152602560248201527f4552433732313a20746f6b656e2068617320616c7265616479206265656e206d6044820152641a5b9d195960da1b6064820152608401610217565b600083815260026020908152604080832080546001600160a01b0319166001600160a01b0389169081179091558352600390915281208054600192906106819084906109ef565b909155505060405183906001600160a01b038616906000907fddf252ad1be2c89b69c2b068fc378daa952ba7f163c4a11628f55a4df523b3ef908290a450505050565b8280546106d090610908565b90600052602060002090601f0160209004810192826106f25760008555610738565b82601f1061070b57805160ff1916838001178555610738565b82800160010185558215610738579182015b8281111561073857825182559160200191906001019061071d565b50610744929150610748565b5090565b5b808211156107445760008155600101610749565b60005b83811015610778578181015183820152602001610760565b83811115610787576000848401525b50505050565b60208152600082518060208401526107ac81604085016020870161075d565b601f01601f19169190910160400192915050565b80356001600160a01b03811681146107d757600080fd5b919050565b600080604083850312156107ef57600080fd5b6107f8836107c0565b946020939093013593505050565b60006020828403121561081857600080fd5b5035919050565b60006020828403121561083157600080fd5b61083a826107c0565b9392505050565b634e487b7160e01b600052604160045260246000fd5b60006020828403121561086957600080fd5b813567ffffffffffffffff8082111561088157600080fd5b818401915084601f83011261089557600080fd5b8135818111156108a7576108a7610841565b604051601f8201601f19908116603f011681019083821181831017156108cf576108cf610841565b816040528281528760208487010111156108e857600080fd5b826020860160208301376000928101602001929092525095945050505050565b600181811c9082168061091c57607f821691505b60208210810361093c57634e487b7160e01b600052602260045260246000fd5b50919050565b6020808252602e908201527f4552433732313a206d696e74696e6720746f207a65726f20616464726573732060408201526d1a5cc81b9bdd08185b1b1bddd95960921b606082015260800190565b634e487b7160e01b600052603260045260246000fd5b600082516109b881846020870161075d565b9190910192915050565b634e487b7160e01b600052601160045260246000fd5b6000828210156109ea576109ea6109c2565b500390565b60008219821115610a0257610a026109c2565b50019056fea2646970667358221220e93d1b5a9cb277ec81593b78100c1a5edaa3461d97ae27e80cd7676897435fca64736f6c634300080d0033",
  "immutableReferences": {},
  "source": "// SPDX-License-Identifier: MIT\npragma solidity >=0.8.0 <0.9.0;\n\nimport \"./ERC721Connector.sol\";\n\ncontract KryptoBirdz is ERC721Connector {\n\n    string[] public kriptoBirdz;\n    mapping(string => bool) _kriptoBirdzExists;\n\n    constructor()\n        ERC721Connector(\"KriptoBirdz\", \"KBIRDZ\")\n    {}\n\n    function mint(string memory _kryptoBird) public {\n        require(_kriptoBirdzExists[_kryptoBird] == false,'KriptoBird already exists');\n        kriptoBirdz.push(_kryptoBird);\n        uint256 _id = kriptoBirdz.length-1;\n        _kriptoBirdzExists[_kryptoBird] = true;\n        _mint(msg.sender,_id);\n    }\n}\n",
  "sourcePath": "/home/fabianorodrigo/Projetos/solidity/udemy/nft-marketplace-truffle/src/contracts/KryptoBirdz.sol",
  "compiler": {
    "name": "solc",
    "version": "0.8.13+commit.abaa5c0e.Emscripten.clang"
  },
  "schemaVersion": "3.4.7",
  "updatedAt": "2022-05-10T15:21:14.077Z",
  "networkType": "ethereum",
  "devdoc": {
    "kind": "dev",
    "methods": {
      "balanceOf(address)": {
        "details": "NFTs assigned to the zero address are considered invalid, and this  function throws for queries about the zero address.",
        "params": {
          "_owner": "An address for whom to query the balance"
        },
        "returns": {
          "_0": "The number of NFTs owned by `_owner`, possibly zero"
        }
      },
      "ownerOf(uint256)": {
        "details": "NFTs assigned to zero address are considered invalid, and queries  about them do throw.",
        "params": {
          "_tokenId": "The identifier for an NFT"
        },
        "returns": {
          "_0": "The address of the owner of the NFT"
        }
      },
      "tokenByIndex(uint256)": {
        "details": "Throws if `_index` >= `totalSupply()`.",
        "params": {
          "_index": "A counter less than `totalSupply()`"
        },
        "returns": {
          "_0": "The token identifier for the `_index`th NFT,  (sort order not specified)"
        }
      },
      "tokenOfOwnerByIndex(address,uint256)": {
        "details": "Throws if `_index` >= `balanceOf(_owner)` or if  `_owner` is the zero address, representing invalid NFTs.",
        "params": {
          "_index": "A counter less than `balanceOf(_owner)`",
          "_owner": "An address where we are interested in NFTs owned by them"
        },
        "returns": {
          "_0": "The token identifier for the `_index`th NFT assigned to `_owner`,   (sort order not specified)"
        }
      },
      "totalSupply()": {
        "returns": {
          "_0": "A count of valid NFTs tracked by this contract, where each one of  them has an assigned and queryable owner not equal to the zero address"
        }
      }
    },
    "version": 1
  },
  "userdoc": {
    "kind": "user",
    "methods": {
      "balanceOf(address)": {
        "notice": "Count all NFTs assigned to an owner"
      },
      "name()": {
        "notice": "A descriptive name for a collection of NFTs in this contract"
      },
      "ownerOf(uint256)": {
        "notice": "Find the owner of an NFT"
      },
      "symbol()": {
        "notice": "An abbreviated name for NFTs in this contract"
      },
      "tokenByIndex(uint256)": {
        "notice": "Enumerate valid NFTs"
      },
      "tokenOfOwnerByIndex(address,uint256)": {
        "notice": "Enumerate NFTs assigned to an owner"
      },
      "totalSupply()": {
        "notice": "Count NFTs tracked by this contract"
      }
    },
    "version": 1
  }
}