{
  "contractName": "KryptoBirdz",
  "abi": [
    {
      "inputs": [],
      "stateMutability": "nonpayable",
      "type": "constructor"
    },
    {
      "anonymous": false,
      "inputs": [
        {
          "indexed": true,
          "internalType": "address",
          "name": "_owner",
          "type": "address"
        },
        {
          "indexed": true,
          "internalType": "address",
          "name": "_approved",
          "type": "address"
        },
        {
          "indexed": true,
          "internalType": "uint256",
          "name": "_tokenId",
          "type": "uint256"
        }
      ],
      "name": "Approval",
      "type": "event"
    },
    {
      "anonymous": false,
      "inputs": [
        {
          "indexed": true,
          "internalType": "address",
          "name": "_owner",
          "type": "address"
        },
        {
          "indexed": true,
          "internalType": "address",
          "name": "_operator",
          "type": "address"
        },
        {
          "indexed": false,
          "internalType": "bool",
          "name": "_approved",
          "type": "bool"
        }
      ],
      "name": "ApprovalForAll",
      "type": "event"
    },
    {
      "anonymous": false,
      "inputs": [
        {
          "indexed": true,
          "internalType": "address",
          "name": "_from",
          "type": "address"
        },
        {
          "indexed": true,
          "internalType": "address",
          "name": "_to",
          "type": "address"
        },
        {
          "indexed": true,
          "internalType": "uint256",
          "name": "_tokenId",
          "type": "uint256"
        }
      ],
      "name": "Transfer",
      "type": "event"
    },
    {
      "inputs": [
        {
          "internalType": "address",
          "name": "_approved",
          "type": "address"
        },
        {
          "internalType": "uint256",
          "name": "_tokenId",
          "type": "uint256"
        }
      ],
      "name": "approve",
      "outputs": [],
      "stateMutability": "payable",
      "type": "function",
      "payable": true
    },
    {
      "inputs": [
        {
          "internalType": "address",
          "name": "_owner",
          "type": "address"
        }
      ],
      "name": "balanceOf",
      "outputs": [
        {
          "internalType": "uint256",
          "name": "",
          "type": "uint256"
        }
      ],
      "stateMutability": "view",
      "type": "function",
      "constant": true
    },
    {
      "inputs": [
        {
          "internalType": "uint256",
          "name": "",
          "type": "uint256"
        }
      ],
      "name": "kryptoBirdz",
      "outputs": [
        {
          "internalType": "string",
          "name": "",
          "type": "string"
        }
      ],
      "stateMutability": "view",
      "type": "function",
      "constant": true
    },
    {
      "inputs": [],
      "name": "name",
      "outputs": [
        {
          "internalType": "string",
          "name": "",
          "type": "string"
        }
      ],
      "stateMutability": "view",
      "type": "function",
      "constant": true
    },
    {
      "inputs": [
        {
          "internalType": "uint256",
          "name": "_tokenId",
          "type": "uint256"
        }
      ],
      "name": "ownerOf",
      "outputs": [
        {
          "internalType": "address",
          "name": "",
          "type": "address"
        }
      ],
      "stateMutability": "view",
      "type": "function",
      "constant": true
    },
    {
      "inputs": [
        {
          "internalType": "bytes4",
          "name": "_interfaceID",
          "type": "bytes4"
        }
      ],
      "name": "supportsInterface",
      "outputs": [
        {
          "internalType": "bool",
          "name": "",
          "type": "bool"
        }
      ],
      "stateMutability": "view",
      "type": "function",
      "constant": true
    },
    {
      "inputs": [],
      "name": "symbol",
      "outputs": [
        {
          "internalType": "string",
          "name": "",
          "type": "string"
        }
      ],
      "stateMutability": "view",
      "type": "function",
      "constant": true
    },
    {
      "inputs": [
        {
          "internalType": "uint256",
          "name": "_index",
          "type": "uint256"
        }
      ],
      "name": "tokenByIndex",
      "outputs": [
        {
          "internalType": "uint256",
          "name": "",
          "type": "uint256"
        }
      ],
      "stateMutability": "view",
      "type": "function",
      "constant": true
    },
    {
      "inputs": [
        {
          "internalType": "address",
          "name": "_owner",
          "type": "address"
        },
        {
          "internalType": "uint256",
          "name": "_index",
          "type": "uint256"
        }
      ],
      "name": "tokenOfOwnerByIndex",
      "outputs": [
        {
          "internalType": "uint256",
          "name": "",
          "type": "uint256"
        }
      ],
      "stateMutability": "view",
      "type": "function",
      "constant": true
    },
    {
      "inputs": [
        {
          "internalType": "uint256",
          "name": "_tokenId",
          "type": "uint256"
        }
      ],
      "name": "tokenURI",
      "outputs": [
        {
          "internalType": "string",
          "name": "",
          "type": "string"
        }
      ],
      "stateMutability": "view",
      "type": "function",
      "constant": true
    },
    {
      "inputs": [],
      "name": "totalSupply",
      "outputs": [
        {
          "internalType": "uint256",
          "name": "",
          "type": "uint256"
        }
      ],
      "stateMutability": "view",
      "type": "function",
      "constant": true
    },
    {
      "inputs": [
        {
          "internalType": "address",
          "name": "_from",
          "type": "address"
        },
        {
          "internalType": "address",
          "name": "_to",
          "type": "address"
        },
        {
          "internalType": "uint256",
          "name": "_tokenId",
          "type": "uint256"
        }
      ],
      "name": "transferFrom",
      "outputs": [],
      "stateMutability": "payable",
      "type": "function",
      "payable": true
    },
    {
      "inputs": [
        {
          "internalType": "string",
          "name": "_kryptoBird",
          "type": "string"
        }
      ],
      "name": "mint",
      "outputs": [],
      "stateMutability": "nonpayable",
      "type": "function"
    }
  ],
  "bytecode": "0x60806040523480156200001157600080fd5b506040518060400160405280600b81526020016a25b934b83a37a134b9323d60a91b8152506040518060400160405280600681526020016525a124a9222d60d11b8152506040518060400160405280601c81526020017f687474703a2f2f6b727970746f626972647a2e636f6d2f6e6674732f00000000815250828282620000bf7f01ffc9a7a5cef8baa21ed3c5c0d7e23accb804b619e9333b597f47a0d84076e26200016460201b60201c565b8251620000d4906001906020860190620001e8565b508151620000ea906002906020850190620001e8565b50805162000100906003906020840190620001e8565b50600062000115635b5e139f60e01b62000164565b506200014692507f304ad1f2afea4ffb313492ce5bd338832dfd9845798d2faba4c0462e1ca9a2a991505062000164565b60006200015a63780e9d6360e01b62000164565b50505050620002ca565b6001600160e01b03198082169003620001c35760405162461bcd60e51b815260206004820152601c60248201527f4552433136353a20496e76616c6964205f696e74657266616365496400000000604482015260640160405180910390fd5b6001600160e01b0319166000908152602081905260409020805460ff19166001179055565b828054620001f6906200028e565b90600052602060002090601f0160209004810192826200021a576000855562000265565b82601f106200023557805160ff191683800117855562000265565b8280016001018555821562000265579182015b828111156200026557825182559160200191906001019062000248565b506200027392915062000277565b5090565b5b8082111562000273576000815560010162000278565b600181811c90821680620002a357607f821691505b602082108103620002c457634e487b7160e01b600052602260045260246000fd5b50919050565b6112e680620002da6000396000f3fe6080604052600436106100c25760003560e01c80634f6ccce71161007f57806393ab6e561161005957806393ab6e561461021757806395d89b4114610237578063c87b56dd1461024c578063d85d3d271461026c57600080fd5b80634f6ccce71461019f5780636352211e146101bf57806370a08231146101f757600080fd5b806301ffc9a7146100c757806306fdde0314610116578063095ea7b31461013857806318160ddd1461014d57806323b872dd1461016c5780632f745c591461017f575b600080fd5b3480156100d357600080fd5b506101016100e2366004610e62565b6001600160e01b03191660009081526020819052604090205460ff1690565b60405190151581526020015b60405180910390f35b34801561012257600080fd5b5061012b61028c565b60405161010d9190610ebc565b61014b610146366004610f07565b61031e565b005b34801561015957600080fd5b506007545b60405190815260200161010d565b61014b61017a366004610f33565b6104e7565b34801561018b57600080fd5b5061015e61019a366004610f07565b610568565b3480156101ab57600080fd5b5061015e6101ba366004610f74565b610637565b3480156101cb57600080fd5b506101df6101da366004610f74565b6106c7565b6040516001600160a01b03909116815260200161010d565b34801561020357600080fd5b5061015e610212366004610f8d565b610732565b34801561022357600080fd5b5061012b610232366004610f74565b6107b2565b34801561024357600080fd5b5061012b61085e565b34801561025857600080fd5b5061012b610267366004610f74565b61086d565b34801561027857600080fd5b5061014b610287366004610fc0565b610899565b60606001805461029b90611071565b80601f01602080910402602001604051908101604052809291908181526020018280546102c790611071565b80156103145780601f106102e957610100808354040283529160200191610314565b820191906000526020600020905b8154815290600101906020018083116102f757829003601f168201915b5050505050905090565b6040516331a9108f60e11b8152600481018290523390829082903090636352211e90602401602060405180830381865afa158015610360573d6000803e3d6000fd5b505050506040513d601f19601f8201168201806040525081019061038491906110ab565b6001600160a01b0316146103b35760405162461bcd60e51b81526004016103aa906110c8565b60405180910390fd5b6040516331a9108f60e11b8152600481018490523090636352211e90602401602060405180830381865afa1580156103ef573d6000803e3d6000fd5b505050506040513d601f19601f8201168201806040525081019061041391906110ab565b6001600160a01b0316846001600160a01b03160361048c5760405162461bcd60e51b815260206004820152603060248201527f4552433732313a20417070726f76616c20746f2063757272656e74206f776e6560448201526f1c881a5cc81b9bddc8185b1b1bddd95960821b60648201526084016103aa565b60008381526006602052604080822080546001600160a01b0319166001600160a01b0388169081179091559051859233917f8c5be1e5ebec7d5bd14f71427d1e84f3dd0314c0f7b2291e5b200ac8c7c3b9259190a450505050565b6104f133826109a1565b6105585760405162461bcd60e51b815260206004820152603260248201527f4552433732313a2073656e646572206e6f7420746865206f776e6572206e6f7260448201527108185c1c1c9bdd9959081d1bc8191bc81a5d60721b60648201526084016103aa565b610563838383610aa5565b505050565b6000826001600160a01b0381166105915760405162461bcd60e51b81526004016103aa9061111d565b61059a84610732565b83106105f95760405162461bcd60e51b815260206004820152602860248201527f4552433732313a206f776e657220696e646578206973206f7574206f662074686044820152676520626f756e647360c01b60648201526084016103aa565b6001600160a01b03841660009081526009602052604090208054849081106106235761062361116b565b906000526020600020015491505092915050565b600061064260075490565b82106106a25760405162461bcd60e51b815260206004820152602960248201527f4552433732313a20676c6f62616c20696e646578206973206f7574206f662074604482015268686520626f756e647360b81b60648201526084016103aa565b600782815481106106b5576106b561116b565b90600052602060002001549050919050565b6000818152600460205260408120546001600160a01b03168061072c5760405162461bcd60e51b815260206004820152601860248201527f4552433732313a20696e76616c6964205f746f6b656e4964000000000000000060448201526064016103aa565b92915050565b60006001600160a01b0382166107965760405162461bcd60e51b815260206004820152602360248201527f4552433732313a207a65726f2061646472657373206973206e6f7420616c6c6f6044820152621dd95960ea1b60648201526084016103aa565b506001600160a01b031660009081526005602052604090205490565b600b81815481106107c257600080fd5b9060005260206000200160009150905080546107dd90611071565b80601f016020809104026020016040519081016040528092919081815260200182805461080990611071565b80156108565780601f1061082b57610100808354040283529160200191610856565b820191906000526020600020905b81548152906001019060200180831161083957829003601f168201915b505050505081565b60606002805461029b90611071565b6060600382604051602001610883929190611181565b6040516020818303038152906040529050919050565b600c816040516108a9919061121f565b9081526040519081900360200190205460ff16156109095760405162461bcd60e51b815260206004820152601960248201527f4b726970746f4269726420616c7265616479206578697374730000000000000060448201526064016103aa565b600b8054600181018255600091909152815161094c917f0175b7a638427703f0dbe7bb9bbf987a2551717b34e79f33b5b1008d1fa01db901906020840190610dc9565b50600b5460009061095f90600190611251565b90506001600c83604051610973919061121f565b908152604051908190036020019020805491151560ff1990921691909117905561099d3382610c12565b5050565b6000818152600460205260408120546001600160a01b0316610a055760405162461bcd60e51b815260206004820152601c60248201527f4552433732313a20546f6b656e20646f6573206e6f742065786973740000000060448201526064016103aa565b6040516331a9108f60e11b8152600481018390526001600160a01b038416903090636352211e90602401602060405180830381865afa158015610a4c573d6000803e3d6000fd5b505050506040513d601f19601f82011682018060405250810190610a7091906110ab565b6001600160a01b03161480610a9e57506000828152600660205260409020546001600160a01b038481169116145b9392505050565b816001600160a01b038116610acc5760405162461bcd60e51b81526004016103aa9061111d565b6040516331a9108f60e11b815260048101839052849083906001600160a01b038316903090636352211e90602401602060405180830381865afa158015610b17573d6000803e3d6000fd5b505050506040513d601f19601f82011682018060405250810190610b3b91906110ab565b6001600160a01b031614610b615760405162461bcd60e51b81526004016103aa906110c8565b6001600160a01b0386166000908152600560205260408120805491610b8583611268565b90915550506001600160a01b0385166000908152600560205260408120805491610bae8361127f565b909155505060008481526004602052604080822080546001600160a01b0319166001600160a01b0389811691821790925591518793918a16917fddf252ad1be2c89b69c2b068fc378daa952ba7f163c4a11628f55a4df523b3ef91a4505050505050565b610c1c8282610ca3565b610c6481600780546000838152600860205260408120829055600182018355919091527fa66cc928b5edb82af9bd49922954155ab7b0942694bea4ce44661d9a8736c6880155565b6001600160a01b039190911660009081526009602081815260408084208054868652600a84529185208290559282526001810183559183529091200155565b816001600160a01b038116610cca5760405162461bcd60e51b81526004016103aa9061111d565b60008281526004602052604090205482906001600160a01b031615610d3f5760405162461bcd60e51b815260206004820152602560248201527f4552433732313a20746f6b656e2068617320616c7265616479206265656e206d6044820152641a5b9d195960da1b60648201526084016103aa565b600083815260046020908152604080832080546001600160a01b0319166001600160a01b038916908117909155835260059091528120805460019290610d86908490611298565b909155505060405183906001600160a01b038616906000907fddf252ad1be2c89b69c2b068fc378daa952ba7f163c4a11628f55a4df523b3ef908290a450505050565b828054610dd590611071565b90600052602060002090601f016020900481019282610df75760008555610e3d565b82601f10610e1057805160ff1916838001178555610e3d565b82800160010185558215610e3d579182015b82811115610e3d578251825591602001919060010190610e22565b50610e49929150610e4d565b5090565b5b80821115610e495760008155600101610e4e565b600060208284031215610e7457600080fd5b81356001600160e01b031981168114610a9e57600080fd5b60005b83811015610ea7578181015183820152602001610e8f565b83811115610eb6576000848401525b50505050565b6020815260008251806020840152610edb816040850160208701610e8c565b601f01601f19169190910160400192915050565b6001600160a01b0381168114610f0457600080fd5b50565b60008060408385031215610f1a57600080fd5b8235610f2581610eef565b946020939093013593505050565b600080600060608486031215610f4857600080fd5b8335610f5381610eef565b92506020840135610f6381610eef565b929592945050506040919091013590565b600060208284031215610f8657600080fd5b5035919050565b600060208284031215610f9f57600080fd5b8135610a9e81610eef565b634e487b7160e01b600052604160045260246000fd5b600060208284031215610fd257600080fd5b813567ffffffffffffffff80821115610fea57600080fd5b818401915084601f830112610ffe57600080fd5b81358181111561101057611010610faa565b604051601f8201601f19908116603f0116810190838211818310171561103857611038610faa565b8160405282815287602084870101111561105157600080fd5b826020860160208301376000928101602001929092525095945050505050565b600181811c9082168061108557607f821691505b6020821081036110a557634e487b7160e01b600052602260045260246000fd5b50919050565b6000602082840312156110bd57600080fd5b8151610a9e81610eef565b60208082526035908201527f4552433732313a207472616e736665722068617320746f2062652065786563756040820152743a32b21037b7363c90313c903a34329037b73bb2b960591b606082015260800190565b6020808252602e908201527f4552433732313a206d696e74696e6720746f207a65726f20616464726573732060408201526d1a5cc81b9bdd08185b1b1bddd95960921b606082015260800190565b634e487b7160e01b600052603260045260246000fd5b600080845481600182811c91508083168061119d57607f831692505b602080841082036111bc57634e487b7160e01b86526022600452602486fd5b8180156111d057600181146111e15761120e565b60ff1986168952848901965061120e565b60008b81526020902060005b868110156112065781548b8201529085019083016111ed565b505084890196505b509785525050509301949350505050565b60008251611231818460208701610e8c565b9190910192915050565b634e487b7160e01b600052601160045260246000fd5b6000828210156112635761126361123b565b500390565b6000816112775761127761123b565b506000190190565b6000600182016112915761129161123b565b5060010190565b600082198211156112ab576112ab61123b565b50019056fea2646970667358221220d42608e9425e7e24270a34c039196c5194ab0dbfa1c95ad4ea93e180950d284264736f6c634300080d0033",
  "immutableReferences": {},
  "source": "// SPDX-License-Identifier: MIT\npragma solidity >=0.8.0 <0.9.0;\n\nimport \"./ERC721Connector.sol\";\n\ncontract KryptoBirdz is ERC721Connector {\n  string[] public kryptoBirdz;\n  mapping(string => bool) _kriptoBirdzExists;\n\n  constructor()\n    ERC721Connector(\"KriptoBirdz\", \"KBIRDZ\", \"http://kryptobirdz.com/nfts/\")\n  {}\n\n  function mint(string memory _kryptoBird) public {\n    require(\n      _kriptoBirdzExists[_kryptoBird] == false,\n      \"KriptoBird already exists\"\n    );\n    kryptoBirdz.push(_kryptoBird);\n    uint256 _id = kryptoBirdz.length - 1;\n    _kriptoBirdzExists[_kryptoBird] = true;\n    _mint(msg.sender, _id);\n  }\n}\n",
  "sourcePath": "/home/fabianorodrigo/Projetos/solidity/udemy/nft-marketplace-truffle/src/contracts/KryptoBirdz.sol",
  "compiler": {
    "name": "solc",
    "version": "0.8.13+commit.abaa5c0e.Emscripten.clang"
  },
  "schemaVersion": "3.4.7",
  "updatedAt": "2022-05-26T10:16:13.248Z",
  "networkType": "ethereum",
  "devdoc": {
    "kind": "dev",
    "methods": {
      "approve(address,uint256)": {
        "details": "The zero address indicates there is no approved address.  Throws unless `msg.sender` is the current NFT owner, or an authorized  operator of the current owner.",
        "params": {
          "_approved": "The new approved NFT controller",
          "_tokenId": "The NFT to approve"
        }
      },
      "balanceOf(address)": {
        "details": "NFTs assigned to the zero address are considered invalid, and this  function throws for queries about the zero address.",
        "params": {
          "_owner": "An address for whom to query the balance"
        },
        "returns": {
          "_0": "The number of NFTs owned by `_owner`, possibly zero"
        }
      },
      "ownerOf(uint256)": {
        "details": "NFTs assigned to zero address are considered invalid, and queries  about them do throw.",
        "params": {
          "_tokenId": "The identifier for an NFT"
        },
        "returns": {
          "_0": "The address of the owner of the NFT"
        }
      },
      "supportsInterface(bytes4)": {
        "details": "Interface identification is specified in ERC-165. This function  uses less than 30,000 gas.",
        "params": {
          "_interfaceID": "The interface identifier, as specified in ERC-165"
        },
        "returns": {
          "_0": "`true` if the contract implements `interfaceID` and  `interfaceID` is not 0xffffffff, `false` otherwise"
        }
      },
      "tokenByIndex(uint256)": {
        "details": "Throws if `_index` >= `totalSupply()`.",
        "params": {
          "_index": "A counter less than `totalSupply()`"
        },
        "returns": {
          "_0": "The token identifier for the `_index`th NFT,  (sort order not specified)"
        }
      },
      "tokenOfOwnerByIndex(address,uint256)": {
        "details": "Throws if `_index` >= `balanceOf(_owner)` or if  `_owner` is the zero address, representing invalid NFTs.",
        "params": {
          "_index": "A counter less than `balanceOf(_owner)`",
          "_owner": "An address where we are interested in NFTs owned by them"
        },
        "returns": {
          "_0": "The token identifier for the `_index`th NFT assigned to `_owner`,   (sort order not specified)"
        }
      },
      "tokenURI(uint256)": {
        "details": "Throws if `_tokenId` is not a valid NFT. URIs are defined in RFC  3986. The URI may point to a JSON file that conforms to the \"ERC721  Metadata JSON Schema\"."
      },
      "totalSupply()": {
        "returns": {
          "_0": "A count of valid NFTs tracked by this contract, where each one of  them has an assigned and queryable owner not equal to the zero address"
        }
      },
      "transferFrom(address,address,uint256)": {
        "details": "Throws unless `msg.sender` is the current owner, an authorized  operator, or the approved address for this NFT. Throws if `_from` is  not the current owner. Throws if `_to` is the zero address. Throws if  `_tokenId` is not a valid NFT.",
        "params": {
          "_from": "The current owner of the NFT",
          "_to": "The new owner",
          "_tokenId": "The NFT to transfer"
        }
      }
    },
    "version": 1
  },
  "userdoc": {
    "kind": "user",
    "methods": {
      "approve(address,uint256)": {
        "notice": "Change or reaffirm the approved address for an NFT"
      },
      "balanceOf(address)": {
        "notice": "Count all NFTs assigned to an owner"
      },
      "name()": {
        "notice": "A descriptive name for a collection of NFTs in this contract"
      },
      "ownerOf(uint256)": {
        "notice": "Find the owner of an NFT"
      },
      "supportsInterface(bytes4)": {
        "notice": "Query if a contract implements an interface"
      },
      "symbol()": {
        "notice": "An abbreviated name for NFTs in this contract"
      },
      "tokenByIndex(uint256)": {
        "notice": "Enumerate valid NFTs"
      },
      "tokenOfOwnerByIndex(address,uint256)": {
        "notice": "Enumerate NFTs assigned to an owner"
      },
      "tokenURI(uint256)": {
        "notice": "A distinct Uniform Resource Identifier (URI) for a given asset."
      },
      "totalSupply()": {
        "notice": "Count NFTs tracked by this contract"
      },
      "transferFrom(address,address,uint256)": {
        "notice": "Transfer ownership of an NFT -- THE CALLER IS RESPONSIBLE  TO CONFIRM THAT `_to` IS CAPABLE OF RECEIVING NFTS OR ELSE  THEY MAY BE PERMANENTLY LOST"
      }
    },
    "version": 1
  }
}