{
  "contractName": "KryptoBirdz",
  "abi": [
    {
      "inputs": [],
      "stateMutability": "nonpayable",
      "type": "constructor"
    },
    {
      "anonymous": false,
      "inputs": [
        {
          "indexed": true,
          "internalType": "address",
          "name": "_from",
          "type": "address"
        },
        {
          "indexed": true,
          "internalType": "address",
          "name": "_to",
          "type": "address"
        },
        {
          "indexed": true,
          "internalType": "uint256",
          "name": "_tokenId",
          "type": "uint256"
        }
      ],
      "name": "Transfer",
      "type": "event"
    },
    {
      "inputs": [
        {
          "internalType": "address",
          "name": "_owner",
          "type": "address"
        }
      ],
      "name": "balanceOf",
      "outputs": [
        {
          "internalType": "uint256",
          "name": "",
          "type": "uint256"
        }
      ],
      "stateMutability": "view",
      "type": "function",
      "constant": true
    },
    {
      "inputs": [
        {
          "internalType": "uint256",
          "name": "",
          "type": "uint256"
        }
      ],
      "name": "kriptoBirdz",
      "outputs": [
        {
          "internalType": "string",
          "name": "",
          "type": "string"
        }
      ],
      "stateMutability": "view",
      "type": "function",
      "constant": true
    },
    {
      "inputs": [],
      "name": "name",
      "outputs": [
        {
          "internalType": "string",
          "name": "",
          "type": "string"
        }
      ],
      "stateMutability": "view",
      "type": "function",
      "constant": true
    },
    {
      "inputs": [
        {
          "internalType": "uint256",
          "name": "_tokenId",
          "type": "uint256"
        }
      ],
      "name": "ownerOf",
      "outputs": [
        {
          "internalType": "address",
          "name": "",
          "type": "address"
        }
      ],
      "stateMutability": "view",
      "type": "function",
      "constant": true
    },
    {
      "inputs": [],
      "name": "symbol",
      "outputs": [
        {
          "internalType": "string",
          "name": "",
          "type": "string"
        }
      ],
      "stateMutability": "view",
      "type": "function",
      "constant": true
    },
    {
      "inputs": [
        {
          "internalType": "string",
          "name": "_kryptoBird",
          "type": "string"
        }
      ],
      "name": "mint",
      "outputs": [],
      "stateMutability": "nonpayable",
      "type": "function"
    }
  ],
  "bytecode": "0x608060405234801561001057600080fd5b50604080518082018252600b81526a25b934b83a37a134b9323d60a91b60208083019182528351808501909452600684526525a124a9222d60d11b9084015281519192918391839161006491600091610082565b508051610078906001906020840190610082565b5050505050610155565b82805461008e9061011b565b90600052602060002090601f0160209004810192826100b057600085556100f6565b82601f106100c957805160ff19168380011785556100f6565b828001600101855582156100f6579182015b828111156100f65782518255916020019190600101906100db565b50610102929150610106565b5090565b5b808211156101025760008155600101610107565b600181811c9082168061012f57607f821691505b60208210810361014f57634e487b7160e01b600052602260045260246000fd5b50919050565b6107cd806101646000396000f3fe608060405234801561001057600080fd5b50600436106100625760003560e01c806306fdde03146100675780636352211e1461008557806370a08231146100c657806395d89b41146100fd578063b4eb308514610105578063d85d3d2714610118575b600080fd5b61006f61012d565b60405161007c91906105b8565b60405180910390f35b6100ae6100933660046105eb565b6000908152600260205260409020546001600160a01b031690565b6040516001600160a01b03909116815260200161007c565b6100ef6100d4366004610604565b6001600160a01b031660009081526003602052604090205490565b60405190815260200161007c565b61006f6101bf565b61006f6101133660046105eb565b6101ce565b61012b61012636600461064a565b61027a565b005b60606000805461013c906106fb565b80601f0160208091040260200160405190810160405280929190818152602001828054610168906106fb565b80156101b55780601f1061018a576101008083540402835291602001916101b5565b820191906000526020600020905b81548152906001019060200180831161019857829003601f168201915b5050505050905090565b60606001805461013c906106fb565b600481815481106101de57600080fd5b9060005260206000200160009150905080546101f9906106fb565b80601f0160208091040260200160405190810160405280929190818152602001828054610225906106fb565b80156102725780601f1061024757610100808354040283529160200191610272565b820191906000526020600020905b81548152906001019060200180831161025557829003601f168201915b505050505081565b60058160405161028a9190610735565b9081526040519081900360200190205460ff16156102ef5760405162461bcd60e51b815260206004820152601960248201527f4b726970746f4269726420616c7265616479206578697374730000000000000060448201526064015b60405180910390fd5b600480546001810182556000919091528151610332917f8a35acfbc15ff81a39ae7d344fd709f28e8600b4aa8c65c6b64bfe7fe36bd19b019060208401906104ef565b5060045460009061034590600190610767565b905060016005836040516103599190610735565b908152604051908190036020019020805491151560ff199092169190911790556103833382610387565b5050565b816001600160a01b0381166103f55760405162461bcd60e51b815260206004820152602e60248201527f4552433732313a206d696e74696e6720746f207a65726f20616464726573732060448201526d1a5cc81b9bdd08185b1b1bddd95960921b60648201526084016102e6565b60008281526002602052604090205482906001600160a01b03161561046a5760405162461bcd60e51b815260206004820152602560248201527f4552433732313a20746f6b656e2068617320616c7265616479206265656e206d6044820152641a5b9d195960da1b60648201526084016102e6565b600083815260026020908152604080832080546001600160a01b0319166001600160a01b0389169081179091558352600390915281208054916104ac8361077e565b909155505060405183906001600160a01b038616906000907fddf252ad1be2c89b69c2b068fc378daa952ba7f163c4a11628f55a4df523b3ef908290a450505050565b8280546104fb906106fb565b90600052602060002090601f01602090048101928261051d5760008555610563565b82601f1061053657805160ff1916838001178555610563565b82800160010185558215610563579182015b82811115610563578251825591602001919060010190610548565b5061056f929150610573565b5090565b5b8082111561056f5760008155600101610574565b60005b838110156105a357818101518382015260200161058b565b838111156105b2576000848401525b50505050565b60208152600082518060208401526105d7816040850160208701610588565b601f01601f19169190910160400192915050565b6000602082840312156105fd57600080fd5b5035919050565b60006020828403121561061657600080fd5b81356001600160a01b038116811461062d57600080fd5b9392505050565b634e487b7160e01b600052604160045260246000fd5b60006020828403121561065c57600080fd5b813567ffffffffffffffff8082111561067457600080fd5b818401915084601f83011261068857600080fd5b81358181111561069a5761069a610634565b604051601f8201601f19908116603f011681019083821181831017156106c2576106c2610634565b816040528281528760208487010111156106db57600080fd5b826020860160208301376000928101602001929092525095945050505050565b600181811c9082168061070f57607f821691505b60208210810361072f57634e487b7160e01b600052602260045260246000fd5b50919050565b60008251610747818460208701610588565b9190910192915050565b634e487b7160e01b600052601160045260246000fd5b60008282101561077957610779610751565b500390565b60006001820161079057610790610751565b506001019056fea2646970667358221220441e2669e77687ac59e2c88690502093cd19b71e2973ae121f28b183d79e1cc364736f6c634300080d0033",
  "immutableReferences": {},
  "source": "// SPDX-License-Identifier: MIT\npragma solidity >=0.8.0 <0.9.0;\n\nimport \"./ERC721Connector.sol\";\n\ncontract KryptoBirdz is ERC721Connector {\n\n    string[] public kriptoBirdz;\n    mapping(string => bool) _kriptoBirdzExists;\n\n    constructor()\n        ERC721Connector(\"KriptoBirdz\", \"KBIRDZ\")\n    {}\n\n    function mint(string memory _kryptoBird) public {\n        require(_kriptoBirdzExists[_kryptoBird] == false,'KriptoBird already exists');\n        kriptoBirdz.push(_kryptoBird);\n        uint256 _id = kriptoBirdz.length-1;\n        _kriptoBirdzExists[_kryptoBird] = true;\n        _mint(msg.sender,_id);\n    }\n}\n",
  "sourcePath": "/home/fabianorodrigo/Projetos/solidity/udemy/nft-marketplace-truffle/src/contracts/KryptoBirdz.sol",
  "compiler": {
    "name": "solc",
    "version": "0.8.13+commit.abaa5c0e.Emscripten.clang"
  },
  "schemaVersion": "3.4.7",
  "updatedAt": "2022-05-09T14:41:39.756Z",
  "networkType": "ethereum",
  "devdoc": {
    "kind": "dev",
    "methods": {
      "balanceOf(address)": {
        "details": "NFTs assigned to the zero address are considered invalid, and this  function throws for queries about the zero address.",
        "params": {
          "_owner": "An address for whom to query the balance"
        },
        "returns": {
          "_0": "The number of NFTs owned by `_owner`, possibly zero"
        }
      },
      "ownerOf(uint256)": {
        "details": "NFTs assigned to zero address are considered invalid, and queries  about them do throw.",
        "params": {
          "_tokenId": "The identifier for an NFT"
        },
        "returns": {
          "_0": "The address of the owner of the NFT"
        }
      }
    },
    "version": 1
  },
  "userdoc": {
    "kind": "user",
    "methods": {
      "balanceOf(address)": {
        "notice": "Count all NFTs assigned to an owner"
      },
      "name()": {
        "notice": "A descriptive name for a collection of NFTs in this contract"
      },
      "ownerOf(uint256)": {
        "notice": "Find the owner of an NFT"
      },
      "symbol()": {
        "notice": "An abbreviated name for NFTs in this contract"
      }
    },
    "version": 1
  }
}