{
  "contractName": "KryptoBirdz",
  "abi": [
    {
      "inputs": [],
      "stateMutability": "nonpayable",
      "type": "constructor"
    },
    {
      "anonymous": false,
      "inputs": [
        {
          "indexed": true,
          "internalType": "address",
          "name": "_owner",
          "type": "address"
        },
        {
          "indexed": true,
          "internalType": "address",
          "name": "_approved",
          "type": "address"
        },
        {
          "indexed": true,
          "internalType": "uint256",
          "name": "_tokenId",
          "type": "uint256"
        }
      ],
      "name": "Approval",
      "type": "event"
    },
    {
      "anonymous": false,
      "inputs": [
        {
          "indexed": true,
          "internalType": "address",
          "name": "_from",
          "type": "address"
        },
        {
          "indexed": true,
          "internalType": "address",
          "name": "_to",
          "type": "address"
        },
        {
          "indexed": true,
          "internalType": "uint256",
          "name": "_tokenId",
          "type": "uint256"
        }
      ],
      "name": "Transfer",
      "type": "event"
    },
    {
      "inputs": [
        {
          "internalType": "address",
          "name": "_approved",
          "type": "address"
        },
        {
          "internalType": "uint256",
          "name": "_tokenId",
          "type": "uint256"
        }
      ],
      "name": "approve",
      "outputs": [],
      "stateMutability": "payable",
      "type": "function"
    },
    {
      "inputs": [
        {
          "internalType": "address",
          "name": "_owner",
          "type": "address"
        }
      ],
      "name": "balanceOf",
      "outputs": [
        {
          "internalType": "uint256",
          "name": "",
          "type": "uint256"
        }
      ],
      "stateMutability": "view",
      "type": "function"
    },
    {
      "inputs": [
        {
          "internalType": "uint256",
          "name": "",
          "type": "uint256"
        }
      ],
      "name": "kriptoBirdz",
      "outputs": [
        {
          "internalType": "string",
          "name": "",
          "type": "string"
        }
      ],
      "stateMutability": "view",
      "type": "function"
    },
    {
      "inputs": [],
      "name": "name",
      "outputs": [
        {
          "internalType": "string",
          "name": "",
          "type": "string"
        }
      ],
      "stateMutability": "view",
      "type": "function"
    },
    {
      "inputs": [
        {
          "internalType": "uint256",
          "name": "_tokenId",
          "type": "uint256"
        }
      ],
      "name": "ownerOf",
      "outputs": [
        {
          "internalType": "address",
          "name": "",
          "type": "address"
        }
      ],
      "stateMutability": "view",
      "type": "function"
    },
    {
      "inputs": [],
      "name": "symbol",
      "outputs": [
        {
          "internalType": "string",
          "name": "",
          "type": "string"
        }
      ],
      "stateMutability": "view",
      "type": "function"
    },
    {
      "inputs": [
        {
          "internalType": "uint256",
          "name": "_index",
          "type": "uint256"
        }
      ],
      "name": "tokenByIndex",
      "outputs": [
        {
          "internalType": "uint256",
          "name": "",
          "type": "uint256"
        }
      ],
      "stateMutability": "view",
      "type": "function"
    },
    {
      "inputs": [
        {
          "internalType": "address",
          "name": "_owner",
          "type": "address"
        },
        {
          "internalType": "uint256",
          "name": "_index",
          "type": "uint256"
        }
      ],
      "name": "tokenOfOwnerByIndex",
      "outputs": [
        {
          "internalType": "uint256",
          "name": "",
          "type": "uint256"
        }
      ],
      "stateMutability": "view",
      "type": "function"
    },
    {
      "inputs": [],
      "name": "totalSupply",
      "outputs": [
        {
          "internalType": "uint256",
          "name": "",
          "type": "uint256"
        }
      ],
      "stateMutability": "view",
      "type": "function"
    },
    {
      "inputs": [
        {
          "internalType": "address",
          "name": "_from",
          "type": "address"
        },
        {
          "internalType": "address",
          "name": "_to",
          "type": "address"
        },
        {
          "internalType": "uint256",
          "name": "_tokenId",
          "type": "uint256"
        }
      ],
      "name": "transferFrom",
      "outputs": [],
      "stateMutability": "payable",
      "type": "function"
    },
    {
      "inputs": [
        {
          "internalType": "string",
          "name": "_kryptoBird",
          "type": "string"
        }
      ],
      "name": "mint",
      "outputs": [],
      "stateMutability": "nonpayable",
      "type": "function"
    }
  ],
  "bytecode": "0x60806040523480156200001157600080fd5b50604080518082018252600b81526a25b934b83a37a134b9323d60a91b60208083019182528351808501909452600684526525a124a9222d60d11b90840152815191929183918391620000679160009162000088565b5080516200007d90600190602084019062000088565b50505050506200016a565b82805462000096906200012e565b90600052602060002090601f016020900481019282620000ba576000855562000105565b82601f10620000d557805160ff191683800117855562000105565b8280016001018555821562000105579182015b8281111562000105578251825591602001919060010190620000e8565b506200011392915062000117565b5090565b5b8082111562000113576000815560010162000118565b600181811c908216806200014357607f821691505b6020821081036200016457634e487b7160e01b600052602260045260246000fd5b50919050565b610ff8806200017a6000396000f3fe60806040526004361061009c5760003560e01c80634f6ccce7116100645780634f6ccce7146101335780636352211e1461015357806370a082311461018b57806395d89b41146101ab578063b4eb3085146101c0578063d85d3d27146101e057600080fd5b806306fdde03146100a1578063095ea7b3146100cc57806318160ddd146100e157806323b872dd146101005780632f745c5914610113575b600080fd5b3480156100ad57600080fd5b506100b6610200565b6040516100c39190610c65565b60405180910390f35b6100df6100da366004610cb0565b610292565b005b3480156100ed57600080fd5b506005545b6040519081526020016100c3565b6100df61010e366004610cdc565b61045b565b34801561011f57600080fd5b506100f261012e366004610cb0565b61046b565b34801561013f57600080fd5b506100f261014e366004610d1d565b61053a565b34801561015f57600080fd5b5061017361016e366004610d1d565b6105ca565b6040516001600160a01b0390911681526020016100c3565b34801561019757600080fd5b506100f26101a6366004610d36565b610635565b3480156101b757600080fd5b506100b66106b5565b3480156101cc57600080fd5b506100b66101db366004610d1d565b6106c4565b3480156101ec57600080fd5b506100df6101fb366004610d70565b610770565b60606000805461020f90610e21565b80601f016020809104026020016040519081016040528092919081815260200182805461023b90610e21565b80156102885780601f1061025d57610100808354040283529160200191610288565b820191906000526020600020905b81548152906001019060200180831161026b57829003601f168201915b5050505050905090565b6040516331a9108f60e11b8152600481018290523390829082903090636352211e90602401602060405180830381865afa1580156102d4573d6000803e3d6000fd5b505050506040513d601f19601f820116820180604052508101906102f89190610e5b565b6001600160a01b0316146103275760405162461bcd60e51b815260040161031e90610e78565b60405180910390fd5b6040516331a9108f60e11b8152600481018490523090636352211e90602401602060405180830381865afa158015610363573d6000803e3d6000fd5b505050506040513d601f19601f820116820180604052508101906103879190610e5b565b6001600160a01b0316846001600160a01b0316036104005760405162461bcd60e51b815260206004820152603060248201527f4552433732313a20417070726f76616c20746f2063757272656e74206f776e6560448201526f1c881a5cc81b9bddc8185b1b1bddd95960821b606482015260840161031e565b60008381526004602052604080822080546001600160a01b0319166001600160a01b0388169081179091559051859233917f8c5be1e5ebec7d5bd14f71427d1e84f3dd0314c0f7b2291e5b200ac8c7c3b9259190a450505050565b610466838383610878565b505050565b6000826001600160a01b0381166104945760405162461bcd60e51b815260040161031e90610ecd565b61049d84610635565b83106104fc5760405162461bcd60e51b815260206004820152602860248201527f4552433732313a206f776e657220696e646578206973206f7574206f662074686044820152676520626f756e647360c01b606482015260840161031e565b6001600160a01b038416600090815260076020526040902080548490811061052657610526610f1b565b906000526020600020015491505092915050565b600061054560055490565b82106105a55760405162461bcd60e51b815260206004820152602960248201527f4552433732313a20676c6f62616c20696e646578206973206f7574206f662074604482015268686520626f756e647360b81b606482015260840161031e565b600582815481106105b8576105b8610f1b565b90600052602060002001549050919050565b6000818152600260205260408120546001600160a01b03168061062f5760405162461bcd60e51b815260206004820152601860248201527f4552433732313a20696e76616c6964205f746f6b656e49640000000000000000604482015260640161031e565b92915050565b60006001600160a01b0382166106995760405162461bcd60e51b815260206004820152602360248201527f4552433732313a207a65726f2061646472657373206973206e6f7420616c6c6f6044820152621dd95960ea1b606482015260840161031e565b506001600160a01b031660009081526003602052604090205490565b60606001805461020f90610e21565b600981815481106106d457600080fd5b9060005260206000200160009150905080546106ef90610e21565b80601f016020809104026020016040519081016040528092919081815260200182805461071b90610e21565b80156107685780601f1061073d57610100808354040283529160200191610768565b820191906000526020600020905b81548152906001019060200180831161074b57829003601f168201915b505050505081565b600a816040516107809190610f31565b9081526040519081900360200190205460ff16156107e05760405162461bcd60e51b815260206004820152601960248201527f4b726970746f4269726420616c72656164792065786973747300000000000000604482015260640161031e565b600980546001810182556000919091528151610823917f6e1540171b6c0c960b71a7020d9f60077f6af931a8bbf590da0223dacf75c7af01906020840190610b9c565b5060095460009061083690600190610f63565b90506001600a8360405161084a9190610f31565b908152604051908190036020019020805491151560ff1990921691909117905561087433826109e5565b5050565b816001600160a01b03811661089f5760405162461bcd60e51b815260040161031e90610ecd565b6040516331a9108f60e11b815260048101839052849083906001600160a01b038316903090636352211e90602401602060405180830381865afa1580156108ea573d6000803e3d6000fd5b505050506040513d601f19601f8201168201806040525081019061090e9190610e5b565b6001600160a01b0316146109345760405162461bcd60e51b815260040161031e90610e78565b6001600160a01b038616600090815260036020526040812080549161095883610f7a565b90915550506001600160a01b038516600090815260036020526040812080549161098183610f91565b909155505060008481526002602052604080822080546001600160a01b0319166001600160a01b0389811691821790925591518793918a16917fddf252ad1be2c89b69c2b068fc378daa952ba7f163c4a11628f55a4df523b3ef91a4505050505050565b6109ef8282610a76565b610a3781600580546000838152600660205260408120829055600182018355919091527f036b6384b5eca791c62761152d0c79bb0604c104a5fb6f4eb0703f3154bb3db00155565b6001600160a01b039190911660009081526007602081815260408084208054868652600884529185208290559282526001810183559183529091200155565b816001600160a01b038116610a9d5760405162461bcd60e51b815260040161031e90610ecd565b60008281526002602052604090205482906001600160a01b031615610b125760405162461bcd60e51b815260206004820152602560248201527f4552433732313a20746f6b656e2068617320616c7265616479206265656e206d6044820152641a5b9d195960da1b606482015260840161031e565b600083815260026020908152604080832080546001600160a01b0319166001600160a01b038916908117909155835260039091528120805460019290610b59908490610faa565b909155505060405183906001600160a01b038616906000907fddf252ad1be2c89b69c2b068fc378daa952ba7f163c4a11628f55a4df523b3ef908290a450505050565b828054610ba890610e21565b90600052602060002090601f016020900481019282610bca5760008555610c10565b82601f10610be357805160ff1916838001178555610c10565b82800160010185558215610c10579182015b82811115610c10578251825591602001919060010190610bf5565b50610c1c929150610c20565b5090565b5b80821115610c1c5760008155600101610c21565b60005b83811015610c50578181015183820152602001610c38565b83811115610c5f576000848401525b50505050565b6020815260008251806020840152610c84816040850160208701610c35565b601f01601f19169190910160400192915050565b6001600160a01b0381168114610cad57600080fd5b50565b60008060408385031215610cc357600080fd5b8235610cce81610c98565b946020939093013593505050565b600080600060608486031215610cf157600080fd5b8335610cfc81610c98565b92506020840135610d0c81610c98565b929592945050506040919091013590565b600060208284031215610d2f57600080fd5b5035919050565b600060208284031215610d4857600080fd5b8135610d5381610c98565b9392505050565b634e487b7160e01b600052604160045260246000fd5b600060208284031215610d8257600080fd5b813567ffffffffffffffff80821115610d9a57600080fd5b818401915084601f830112610dae57600080fd5b813581811115610dc057610dc0610d5a565b604051601f8201601f19908116603f01168101908382118183101715610de857610de8610d5a565b81604052828152876020848701011115610e0157600080fd5b826020860160208301376000928101602001929092525095945050505050565b600181811c90821680610e3557607f821691505b602082108103610e5557634e487b7160e01b600052602260045260246000fd5b50919050565b600060208284031215610e6d57600080fd5b8151610d5381610c98565b60208082526035908201527f4552433732313a207472616e736665722068617320746f2062652065786563756040820152743a32b21037b7363c90313c903a34329037b73bb2b960591b606082015260800190565b6020808252602e908201527f4552433732313a206d696e74696e6720746f207a65726f20616464726573732060408201526d1a5cc81b9bdd08185b1b1bddd95960921b606082015260800190565b634e487b7160e01b600052603260045260246000fd5b60008251610f43818460208701610c35565b9190910192915050565b634e487b7160e01b600052601160045260246000fd5b600082821015610f7557610f75610f4d565b500390565b600081610f8957610f89610f4d565b506000190190565b600060018201610fa357610fa3610f4d565b5060010190565b60008219821115610fbd57610fbd610f4d565b50019056fea264697066735822122025175d4bd45276196f75ef54d38d38df248f7678b37d2808ccd99b344d783fd064736f6c634300080d0033",
  "immutableReferences": {},
  "source": "// SPDX-License-Identifier: MIT\npragma solidity >=0.8.0 <0.9.0;\n\nimport \"./ERC721Connector.sol\";\n\ncontract KryptoBirdz is ERC721Connector {\n    string[] public kriptoBirdz;\n    mapping(string => bool) _kriptoBirdzExists;\n\n    constructor() ERC721Connector(\"KriptoBirdz\", \"KBIRDZ\") {}\n\n    function mint(string memory _kryptoBird) public {\n        require(\n            _kriptoBirdzExists[_kryptoBird] == false,\n            \"KriptoBird already exists\"\n        );\n        kriptoBirdz.push(_kryptoBird);\n        uint256 _id = kriptoBirdz.length - 1;\n        _kriptoBirdzExists[_kryptoBird] = true;\n        _mint(msg.sender, _id);\n    }\n}\n",
  "sourcePath": "/home/fabianorodrigo/Projetos/solidity/udemy/nft-marketplace-truffle/src/contracts/KryptoBirdz.sol",
  "compiler": {
    "name": "solc",
    "version": "0.8.13+commit.abaa5c0e.Emscripten.clang"
  },
  "schemaVersion": "3.4.7",
  "updatedAt": "2022-05-11T14:40:25.641Z",
  "devdoc": {
    "kind": "dev",
    "methods": {
      "approve(address,uint256)": {
        "details": "The zero address indicates there is no approved address.  Throws unless `msg.sender` is the current NFT owner, or an authorized  operator of the current owner.",
        "params": {
          "_approved": "The new approved NFT controller",
          "_tokenId": "The NFT to approve"
        }
      },
      "balanceOf(address)": {
        "details": "NFTs assigned to the zero address are considered invalid, and this  function throws for queries about the zero address.",
        "params": {
          "_owner": "An address for whom to query the balance"
        },
        "returns": {
          "_0": "The number of NFTs owned by `_owner`, possibly zero"
        }
      },
      "ownerOf(uint256)": {
        "details": "NFTs assigned to zero address are considered invalid, and queries  about them do throw.",
        "params": {
          "_tokenId": "The identifier for an NFT"
        },
        "returns": {
          "_0": "The address of the owner of the NFT"
        }
      },
      "tokenByIndex(uint256)": {
        "details": "Throws if `_index` >= `totalSupply()`.",
        "params": {
          "_index": "A counter less than `totalSupply()`"
        },
        "returns": {
          "_0": "The token identifier for the `_index`th NFT,  (sort order not specified)"
        }
      },
      "tokenOfOwnerByIndex(address,uint256)": {
        "details": "Throws if `_index` >= `balanceOf(_owner)` or if  `_owner` is the zero address, representing invalid NFTs.",
        "params": {
          "_index": "A counter less than `balanceOf(_owner)`",
          "_owner": "An address where we are interested in NFTs owned by them"
        },
        "returns": {
          "_0": "The token identifier for the `_index`th NFT assigned to `_owner`,   (sort order not specified)"
        }
      },
      "totalSupply()": {
        "returns": {
          "_0": "A count of valid NFTs tracked by this contract, where each one of  them has an assigned and queryable owner not equal to the zero address"
        }
      },
      "transferFrom(address,address,uint256)": {
        "details": "Throws unless `msg.sender` is the current owner, an authorized  operator, or the approved address for this NFT. Throws if `_from` is  not the current owner. Throws if `_to` is the zero address. Throws if  `_tokenId` is not a valid NFT.",
        "params": {
          "_from": "The current owner of the NFT",
          "_to": "The new owner",
          "_tokenId": "The NFT to transfer"
        }
      }
    },
    "version": 1
  },
  "userdoc": {
    "kind": "user",
    "methods": {
      "approve(address,uint256)": {
        "notice": "Change or reaffirm the approved address for an NFT"
      },
      "balanceOf(address)": {
        "notice": "Count all NFTs assigned to an owner"
      },
      "name()": {
        "notice": "A descriptive name for a collection of NFTs in this contract"
      },
      "ownerOf(uint256)": {
        "notice": "Find the owner of an NFT"
      },
      "symbol()": {
        "notice": "An abbreviated name for NFTs in this contract"
      },
      "tokenByIndex(uint256)": {
        "notice": "Enumerate valid NFTs"
      },
      "tokenOfOwnerByIndex(address,uint256)": {
        "notice": "Enumerate NFTs assigned to an owner"
      },
      "totalSupply()": {
        "notice": "Count NFTs tracked by this contract"
      },
      "transferFrom(address,address,uint256)": {
        "notice": "Transfer ownership of an NFT -- THE CALLER IS RESPONSIBLE  TO CONFIRM THAT `_to` IS CAPABLE OF RECEIVING NFTS OR ELSE  THEY MAY BE PERMANENTLY LOST"
      }
    },
    "version": 1
  }
}